:020000040800F2
:1000000000800120711A0008791900087B19000886
:100010007D1900087F190008811900080000000000
:10002000000000000000000000000000831900082C
:1000300085190008000000008719000889190008C8
:10004000C11A0008C11A0008C11A0008C11A000824
:10005000C11A0008C11A0008C11A0008C11A000814
:10006000C11A0008C11A0008C11A0008C11A000804
:10007000C11A0008C11A0008C11A0008C11A0008F4
:10008000C11A0008C11A0008C11A000800000000C7
:10009000000000000000000000000000C11A00087D
:1000A000C11A0008C11A0008C11A0008C11A0008C4
:1000B000C11A000891190008C11A0008C11A0008E5
:1000C000C11A0008C11A0008C11A0008C11A0008A4
:1000D000C11A0008C11A0008A11900080000000098
:1000E000C11A0008C11A0008C11A00080000000067
:1000F000000000000000000000000000C11A00081D
:1001000000000000C11A0008C11A0008C11A000846
:1001100000000000000000000000000000000000DF
:10012000C11A0008C11A0008C11A0008C11A000843
:10013000C11A0008000000000000000000000000DC
:10014000000000000000000000000000C11A0008CC
:10015000C11A0008C11A0008C11A0008C11A000813
:10016000C11A0008C11A00080000000000000000C9
:10017000000000000000000000000000000000007F
:1001800000000000C11A000800000000000000008C
:04019000C11A000888
:1001C00081F0004102E000BF83F0004330B54FEA08
:1001D00041044FEA430594EA050F08BF90EA020F75
:1001E0001FBF54EA000C55EA020C7FEA645C7FEA08
:1001F000655C00F0E2804FEA5454D4EB5555B8BF2B
:100200006D420CDD2C4480EA020281EA030382EA9B
:10021000000083EA010180EA020281EA0303362D2D
:1002200088BF30BD11F0004F4FEA01314FF4801C00
:100230004CEA113102D0404261EB410113F0004F12
:100240004FEA03334CEA133302D0524263EB4303C9
:1002500094EA050F00F0A780A4F10104D5F1200E67
:100260000DDB02FA0EFC22FA05F2801841F10001C2
:1002700003FA0EF2801843FA05F359410EE0A5F196
:1002800020050EF1200E012A03FA0EFC28BF4CF0C7
:10029000020C43FA05F3C01851EBE37101F000457D
:1002A00007D54FF0000EDCF1000C7EEB00006EEB8A
:1002B0000101B1F5801F1BD3B1F5001F0CD3490814
:1002C0005FEA30004FEA3C0C04F101044FEA44526B
:1002D00012F5800F80F09A80BCF1004F08BF5FEAF2
:1002E000500C50F1000041EB045141EA050130BDD2
:1002F0005FEA4C0C404141EB0101013C28BFB1F5E4
:10030000801FE9D291F0000F04BF01460020B1FA2E
:1003100081F308BF2033A3F10B03B3F120020CDA01
:100320000C3208DD02F1140CC2F10C0201FA0CF0DF
:1003300021FA02F10CE002F11402D8BFC2F1200C44
:1003400001FA02F120FA0CFCDCBF41EA0C019040FA
:10035000E41AA2BF01EB0451294330BD6FEA040443
:100360001F3C1CDA0C340EDC04F11404C4F120022E
:1003700020FA04F001FA02F340EA030021FA04F340
:1003800045EA030130BDC4F10C04C4F1200220FA97
:1003900002F001FA04F340EA0300294630BD21FAD5
:1003A00004F0294630BD94F0000F83F4801306BF9B
:1003B00081F480110134013D4EE77FEA645C18BF8F
:1003C0007FEA655C29D094EA050F08BF90EA020F26
:1003D00005D054EA000C04BF1946104630BD91EA1E
:1003E000030F1EBF0021002030BD5FEA545C05D121
:1003F0004000494128BF41F0004130BD14F5800460
:100400003CBF01F5801130BD01F0004545F0FE41D3
:1004100041F470014FF0000030BD7FEA645C1ABF08
:10042000194610467FEA655C1CBF0B46024650EA3F
:10043000013406BF52EA033591EA030F41F400216B
:1004400030BD00BF90F0000F04BF0021704730B5F1
:100450004FF4806404F132044FF000054FF00001C6
:1004600050E700BF90F0000F04BF0021704730B587
:100470004FF4806404F1320410F0004548BF40425C
:100480004FF000013EE700BF42004FEAE2014FEAB1
:1004900031014FEA02701FBF12F07F4393F07F4F8C
:1004A00081F06051704732F07F4208BF704793F08F
:1004B0007F4F04BF41F40021704730B54FF46074A2
:1004C00001F0004521F000411CE700BF50EA0102A5
:1004D00008BF704730B54FF000050AE050EA01024E
:1004E00008BF704730B511F0004502D5404261EBBE
:1004F00041014FF4806404F132045FEA915C3FF4FF
:10050000D8AE4FF003025FEADC0C18BF03325FEA9B
:10051000DC0C18BF033202EBDC02C2F1200300FA4C
:1005200003FC20FA02F001FA03FE40EA0E0021FA71
:1005300002F11444BDE600BF70B54FF0FF0C4CF45F
:10054000E06C1CEA11541DBF1CEA135594EA0C0F11
:1005500095EA0C0F00F0DEF82C4481EA030621EA4C
:100560004C5123EA4C5350EA013518BF52EA033587
:1005700041F4801143F4801338D0A0FB02CE4FF039
:100580000005E1FB02E506F00042E0FB03E54FF069
:100590000006E1FB03569CF0000F18BF4EF0010E61
:1005A000A4F1FF04B6F5007F64F5407404D25FEA5D
:1005B0004E0E6D4146EB060642EAC62141EA555110
:1005C0004FEAC52040EA5E504FEACE2EB4F1FD0C52
:1005D00088BFBCF5E06F1ED8BEF1004F08BF5FEAD0
:1005E000500E50F1000041EB045170BD06F0004682
:1005F00046EA010140EA020081EA0301B4EB5C042F
:10060000C2BFD4EB0C0541EA045170BD41F4801126
:100610004FF0000E013C00F3AB8014F1360FDEBF4B
:10062000002001F0004170BDC4F10004203C35DA27
:100630000C341BDC04F11404C4F1200500FA05F3AA
:1006400020FA04F001FA05F240EA020001F000424B
:1006500021F0004110EBD37021FA04F642EB0601C1
:100660005EEA430E08BF20EAD37070BDC4F10C04EB
:10067000C4F1200500FA04F320FA05F001FA04F2AF
:1006800040EA020001F0004110EBD37041F100019B
:100690005EEA430E08BF20EAD37070BDC4F12005A6
:1006A00000FA05F24EEA020E20FA04F301FA05F20E
:1006B00043EA020321FA04F001F0004121FA04F2B6
:1006C00020EA020000EBD3705EEA430E08BF20EA86
:1006D000D37070BD94F0000F0FD101F000464000C0
:1006E00041EB010111F4801F08BF013CF7D041EA42
:1006F000060195F0000F18BF704703F00046520046
:1007000043EB030313F4801F08BF013DF7D043EA16
:100710000603704794EA0C0F0CEA135518BF95EACC
:100720000C0F0CD050EA410618BF52EA4306D1D153
:1007300081EA030101F000414FF0000070BD50EA72
:10074000410606BF1046194652EA430619D094EAFC
:100750000C0F02D150EA013613D195EA0C0F05D1E6
:1007600052EA03361CBF104619460AD181EA03013A
:1007700001F0004141F0FE4141F470014FF00000F2
:1007800070BD41F0FE4141F4780170BD70B54FF08D
:10079000FF0C4CF4E06C1CEA11541DBF1CEA13550D
:1007A00094EA0C0F95EA0C0F00F0A7F8A4EB0504EF
:1007B00081EA030E52EA03354FEA013100F08880E6
:1007C0004FEA03334FF0805545EA131343EA1263AF
:1007D0004FEA022245EA111545EA10654FEA002664
:1007E0000EF000419D4208BF964244F1FD0404F51D
:1007F000407402D25B084FEA3202B61A65EB030579
:100800005B084FEA32024FF480104FF4002CB6EB35
:10081000020E75EB030E22BFB61A754640EA0C00B5
:100820005B084FEA3202B6EB020E75EB030E22BFF5
:10083000B61A754640EA5C005B084FEA3202B6EB36
:10084000020E75EB030E22BFB61A754640EA9C00F5
:100850005B084FEA3202B6EB020E75EB030E22BFC5
:10086000B61A754640EADC0055EA060E18D04FEA83
:10087000051545EA16754FEA06164FEAC30343EA23
:1008800052734FEAC2025FEA1C1CC0D111F4801FF0
:100890000BD141EA00014FF000004FF0004CB6E7E9
:1008A00011F4801F04BF01430020B4F1FD0C88BF88
:1008B000BCF5E06F3FF6AFAEB5EB030C04BFB6EB93
:1008C000020C5FEA500C50F1000041EB045170BD86
:1008D0000EF0004E4EEA113114EB5C04C2BFD4EBB3
:1008E0000C0541EA045170BD41F480114FF0000E37
:1008F000013C90E645EA060E8DE60CEA135594EAB3
:100900000C0F08BF95EA0C0F3FF43BAF94EA0C0FB5
:100910000AD150EA01347FF434AF95EA0C0F7FF42A
:1009200025AF104619462CE795EA0C0F06D152EA7E
:1009300003353FF4FDAE1046194622E750EA410662
:1009400018BF52EA43067FF4C5AE50EA41047FF473
:100950000DAF52EA43057FF4EBAE12E74FF0FF3CD8
:1009600006E000BF4FF0010C02E000BF4FF0010CA9
:100970004DF804CD4FEA410C7FEA6C5C4FEA430C22
:1009800018BF7FEA6C5C1BD001B050EA410C0CBF71
:1009900052EA430C91EA030F02BF90EA020F0020D3
:1009A000704710F1000F91EA030F58BF994208BF3A
:1009B00090422CBFD8176FEAE37040F001007047F7
:1009C0004FEA410C7FEA6C5C02D150EA013C07D14E
:1009D0004FEA430C7FEA6C5CD6D152EA033CD3D099
:1009E0005DF8040B704700BF8446104662468C4693
:1009F0001946634600E000BF01B5FFF7B7FF0028C6
:100A000048BF10F1000F01BD4DF808EDFFF7F4FFEE
:100A10000CBF012000205DF808FB00BF4DF808ED79
:100A2000FFF7EAFF34BF012000205DF808FB00BF9C
:100A30004DF808EDFFF7E0FF94BF012000205DF8BE
:100A400008FB00BF4DF808EDFFF7CEFF94BF012073
:100A500000205DF808FB00BF4DF808EDFFF7C4FF6C
:100A600034BF012000205DF808FB00BF4FEA4102BF
:100A700012F5001215D211D56FF47873B3EB6252F0
:100A800012D94FEAC12343F0004343EA505311F017
:100A9000004F23FA02F018BF404270474FF00000A9
:100AA000704750EA013005D111F0004008BF6FF0E7
:100AB000004070474FF00000704700BF7BB972B92B
:100AC0000029BEBF00204FF0004106E008BF00280B
:100AD0001CBF6FF000414FF0FF3000F057B8ADF190
:100AE000080C6DE904CE002909DB002B1ADB02F0AB
:100AF000A1FFDDF804E0DDE9022304B070474042C5
:100B000061EB4101002B1BDB02F094FFDDF804E0F8
:100B1000DDE9022304B0404261EB4101524263EB44
:100B200043037047524263EB430302F083FFDDF857
:100B300004E0DDE9022304B0404261EB410170476B
:100B4000524263EB430302F075FFDDF804E0DDE998
:100B5000022304B0524263EB4303704753B94AB9CE
:100B6000002908BF00281CBF4FF0FF314FF0FF30B5
:100B700000F00CB8ADF1080C6DE904CE02F05AFF9C
:100B8000DDF804E0DDE9022304B07047704700BFE0
:100B900001F0FF01102A2BDB10F0070F08D010F82E
:100BA000013B013A8B422DD010F0070F42B3F6D132
:100BB000F0B441EA012141EA014122F007047FF04B
:100BC00000070023F0E80256083C85EA010586EAA2
:100BD000010685FA47F5A3FA87F586FA47F6A5FADE
:100BE00087F68EB9EED1F0BC01F0FF0102F00702EA
:100BF00032B110F8013B013A83EA010313B1F8D195
:100C00000020704701387047002D06BF3546033875
:100C1000073815F0010F07D1013015F4807F02BFAE
:100C2000013015F4C03F0130F0BC0138704700BFFF
:100C300000000000000000000000000000000000B4
:100C400030B490F800F020F007016FF0000C10F0C5
:100C5000070491F820F040F048804FF000046FF056
:100C60000700D1E9002391F840F000F1080082FA72
:100C70004CF2A4FA8CF283FA4CF3A2FA8CF34BBB3D
:100C8000D1E9022382FA4CF200F10800A4FA8CF2B6
:100C900083FA4CF3A2FA8CF3E3B9D1E9042382FA84
:100CA0004CF200F10800A4FA8CF283FA4CF3A2FA99
:100CB0008CF37BB9D1E9062301F1200182FA4CF2D1
:100CC00000F10800A4FA8CF283FA4CF3A2FA8CF338
:100CD000002BC6D0002A04BF04301A4612BAB2FA5A
:100CE00082F200EBD20030BC7047D1E9002304F05F
:100CF0000305C4F100004FEAC50514F0040F91F894
:100D000040F00CFA05F562EA05021CBF63EA050330
:100D100062464FF00004AAE7844641EA000313F05C
:100D200003036DD1403A41D351F8043B40F8043BF2
:100D300051F8043B40F8043B51F8043B40F8043BB5
:100D400051F8043B40F8043B51F8043B40F8043BA5
:100D500051F8043B40F8043B51F8043B40F8043B95
:100D600051F8043B40F8043B51F8043B40F8043B85
:100D700051F8043B40F8043B51F8043B40F8043B75
:100D800051F8043B40F8043B51F8043B40F8043B65
:100D900051F8043B40F8043B51F8043B40F8043B55
:100DA00051F8043B40F8043B403ABDD2303211D3F5
:100DB00051F8043B40F8043B51F8043B40F8043B35
:100DC00051F8043B40F8043B51F8043B40F8043B25
:100DD000103AEDD20C3205D351F8043B40F8043BF5
:100DE000043AF9D2043208D0D2071CBF11F8013BF3
:100DF00000F8013B01D30B8803806046704700BFB9
:100E0000082A13D38B078DD010F003038AD0C3F1C7
:100E10000403D21ADB071CBF11F8013B00F8013BA9
:100E200080D331F8023B20F8023B7BE7043AD9D368
:100E3000013A11F8013B00F8013BF9D20B7803703D
:100E40004B7843708B788370604670474FEA410C53
:100E50007FEA6C5C02D150EA013C0AD14FEA430CB4
:100E60007FEA6C5C02D152EA033C02D14FF00000F1
:100E700070474FF0010070470348044B834202D093
:100E8000034B03B118477047C0060020C00600207E
:100E9000000000000548064B1B1AD90F01EBA30107
:100EA000491002D0034B03B118477047C006002019
:100EB000C00600200000000010B5064C237843B99E
:100EC000FFF7DAFF044B13B10448AFF300800123AE
:100ED000237010BDC00600200000000058A00008CC
:100EE00008B5054B1BB105490548AFF30080BDE8C7
:100EF0000840FFF7CFBF00BF00000000C40600207D
:100F000058A0000800F17843B3F5804F29D3A3F52A
:100F10008043B3F5804F26D300F17843A3F5004317
:100F2000B3F5804F21D300F17843A3F54043B3F5E7
:100F3000804F1CD300F1774303F57F03B3F5803F67
:100F400017D300F1774303F57E03B3F5003F12D3C7
:100F500000F1774000F57C00B0F5003F0DD307208D
:100F6000704700207047012070470220704703201F
:100F70007047042070470520704706207047F8B579
:100F800007460E46154600F07BFF002406E00020D1
:100F9000325D0346E11900F0C5FF0134AC42F6D3DF
:100FA00000F086FFF8BD70B586B004460E4600F02E
:100FB00067FF2046FFF7A6FF05463444601EFFF793
:100FC000A1FF002300930193022305930395401B87
:100FD00001300490694601A801F04AF800F068FF6A
:100FE00006B070BD0246002000E00130135C002B0B
:100FF000FBD1704710B50146044C10222068FFF762
:10100000BEFF23681033236010BD00BF0000002026
:10101000024B1878024B03EB00107047DD060020EE
:10102000FFFF050808B5FFF7F3FF03490144034834
:10103000FFF7B9FF08BD00BF0100FAF7000006087E
:101040004FF0804300225A624FF080435B6A834234
:10105000FAD3704710B5154C00220121204601F04B
:1010600040F90220FFF7ECFF01221146204601F073
:1010700038F90A20FFF7E4FF00220121204601F0A1
:1010800030F90221094801F025F90028F9D000249F
:1010900003E001340120FFF7D3FF0221034801F0F0
:1010A00019F90128F5D0A0B210BD00BF0000024020
:1010B00008B54FF47A7000F057FDFFF7CBFFFFF74C
:1010C000D1F905A3D3E90023FFF736FA0022044B38
:1010D000FFF732FA08BD00BF9CC420B07268A13F80
:1010E0000000E03F2DE9F0479AB01C683B4B9C4262
:1010F00002D01AB0BDE8F08707460E461546384BB9
:101100001B789DF88820934203D20133344A137030
:10111000EFE7FFF7CDFF80468946002208A9304659
:1011200001F025FE002207A9304601F046FE9DF899
:1011300020409DF821609DF822A00A21284600F059
:1011400058F9CDE90401CDE90289CDF800A0334674
:10115000224624490DA803F099F80DA8FFF742FF95
:101160004FF0FF3382B20DA9384602F002FA102088
:1011700002F0BEFD0446C0E900890A21284600F0BD
:1011800038F9FFF773FCA0609DF8223023739DF8B7
:10119000213063739DF82030A3730A21284600F0A4
:1011A00028F9114D2E78FFF761FC104B03EB061365
:1011B0009860C3E900899DF822201A739DF82120C8
:1011C0005A739DF820209A732046FFF713FF2B785F
:1011D00001332B70024B00221A708AE70004004092
:1011E000DC06002070A00008DD060020E0060020DC
:1011F000F8B5102002F07CFD054600220023C0E96E
:1012000000230024846000E001340E4B1B78A342CD
:1012100016DD0D4B03EB0413D3E90067D5E900237A
:1012200030463946FFF718FC08B1C5E90067064BA0
:1012300003EB04139B68AA689342E5DDAB60E3E728
:101240002846F8BDDD060020E0060020F8B5102095
:1012500002F04EFD0546134BD3E90001C5E900013C
:101260009B68AB60002400E001340F4B1B78A34265
:1012700016DD0C4B03EB0413D3E90067D5E900231B
:1012800030463946FFF7CAFB08B1C5E90067054B90
:1012900003EB04139B68AA689342E5DAAB60E3E7CB
:1012A0002846F8BDE0060020DD06002030B591B0EC
:1012B0000446012206A902F0AAFB9DF81830732B00
:1012C00005D06D2B1CD0632B33D011B030BDFFF790
:1012D0008FFF0546D0E90023816800911C4903A8CF
:1012E00002F0D4FF03A8FFF77DFE4FF0FF3382B278
:1012F00003A9204602F03DF9284602F001FDE4E78B
:10130000FFF7A4FF0546D0E9002381680091114949
:1013100003A802F0BBFF03A8FFF764FE4FF0FF3302
:1013200082B203A9204602F024F9284602F0E8FC24
:10133000CBE7FFF777FE002405E0074800EB041039
:1013400002F0DEFC0134054B1B78A342F5DCBCE760
:10135000A0A00008C8A00008E0060020DD060020CC
:1013600038B584461846BDF81030CCF80010ACF8FB
:101370000420CCF80800ACF80C300022CCF8102087
:101380000024034DCCE90645194600F0AAFF38BDFC
:101390000000F03F70B50446A188206800F09AFF75
:1013A0000128F9D000252E4600E00135172D12DC6A
:1013B0000122A189A06800F094FF76000022A18993
:1013C000A06800F08EFFA188206800F083FF01284C
:1013D000EBD10136E9E70122A189A06800F081FF85
:1013E00086F400060022A189A06800F07AFF30464A
:1013F00070BD2DE9F04180460F4600252C462E4653
:1014000006E04046FFF7C6FF041946EBE0760135DB
:10141000BD42F6DB3A46FB1720463146FFF74EFB4E
:10142000D8F81030D8E90645C01AFFF71BF8224655
:101430002B46FFF7ABF9BDE8F081000030B587B06F
:101440000024019402940394049405940094124B94
:101450001A6B42F001021A631B6B03F00103009345
:10146000009B0E4D22462121284600F03AFF212301
:101470000193012302930394049401A9284600F0E8
:1014800041FE422301930294039401A9284600F0EF
:1014900039FE07B030BD00BF0038024000000240F6
:1014A00008B54FF6FF7305220249034802F061F8C0
:1014B00008BD00BF200D0020580D002000B583B0EE
:1014C0003C230093044B054A05490648FFF70AFEF2
:1014D00003B05DF804FB00BFA00D0020380D002014
:1014E000300E0020580D002072B6FEE700B587B020
:1014F00000230293039304930593009301931448EC
:101500004FF0804202602922426083604FF6FF72F2
:10151000C2600361836101F0DBFD90B94FF4805339
:10152000029302A90A4801F00BFE60B90023009360
:1015300001936946064801F083FE30B907B05DF8B3
:1015400004FBFFF7D1FFFFF7CFFFFFF7CDFF00BF91
:10155000E80D002000B587B00023019302930393A8
:101560000493059300931A481A4A026043607F224D
:101570008260FF22C26003614361836101F0E6FA89
:10158000F8B900228DF804208DF805208DF806208A
:101590000492059201A90E4801F032FB98B901238B
:1015A0008DF800308DF801308DF8023000228DF872
:1015B00003206946064801F083FB30B907B05DF8A7
:1015C00004FBFFF791FFFFF78FFFFFF78DFF00BFD1
:1015D000300E00200028004000B587B000230293A1
:1015E000039304930593009301931448144A0260F3
:1015F0004AF21042426083604FF47A72C260036123
:10160000836101F065FD90B94FF48053029302A904
:101610000A4801F095FD60B90023009301936946E3
:10162000064801F00DFE30B907B05DF804FBFFF786
:101630005BFFFFF759FFFFF757FF00BFA00D00202A
:101640000004004008B50A480A4B03604FF4E13338
:10165000436000238360C36003610C2242618361A5
:10166000C36101F056FF00B908BDFFF73DFF00BFA1
:10167000580D00200044004000B595B030220021F4
:1016800008A802F013FF0023039304930593069325
:1016900007930193214A116C41F080511164126C3F
:1016A00002F080520192019A02931D490A6822F4C5
:1016B000404242F400420A600A6802F44042029248
:1016C000029A0A22089201220B9210210C910D928B
:1016D00002220E920F930823109354231193129217
:1016E0000423139308A800F003FE90B90F2303937B
:1016F00002230493802305934FF480530693002321
:101700000793012103A801F043F820B915B05DF853
:1017100004FBFFF7E9FEFFF7E7FE00BF00380240D9
:10172000007000400000000000B589B000F0F0F942
:10173000FFF7A2FFFFF782FEFFF7D8FEFFF70AFFD1
:10174000FFF74AFFFFF77EFF2B4801F081FB2B4894
:1017500001F07EFB0022039204920592069207920A
:1017600002920A238DF80C308DF80D308DF80E3072
:1017700003A9234801F044FA08B1FFF7B5FE03239B
:101780008DF8083001228DF8092010238DF80A30D9
:1017900021238DF80B3002A9194801F091FA08B104
:1017A000FFF7A2FE1749184C202300930B46402256
:1017B0002046FFF7D5FD0EA3D3E90023C4E9062395
:1017C000124B23614FF0FF3314221149114801F0ED
:1017D000D0FE104C2046FFF769FD3C230093074BD9
:1017E000094A07492046FFF77DFCF2E7AFF3008086
:1017F000000000000088C340E80D0020A00D00207C
:10180000300E002000000240380D0020E0A57E00D0
:10181000200D0020580D002082B0002100910B4BBC
:101820005A6C42F480425A645A6C02F4804200922C
:10183000009A01911A6C42F080521A641B6C03F0FA
:1018400080530193019B02B0704700BF00380240F3
:1018500000B587B00023019302930393049305938B
:1018600002680B4B9A4202D007B05DF804FB0223DA
:1018700001934FF40073049301A801F05FF820B9BD
:10188000044B0122C3F83C2EEEE7FFF72DFEF7E7ED
:10189000002800400000474200B583B00368B3F160
:1018A000804F05D0134A93420FD003B05DF804FB7C
:1018B00000230093104B1A6C42F001021A641B6C57
:1018C00003F001030093009BEFE7002101910A4B15
:1018D0001A6C42F002021A641B6C03F002030193BB
:1018E000019B0A461D2000F0A7F91D2000F0B4F965
:1018F000DBE700BF000400400038024010B588B0AC
:101900000023039304930593069307930268184BEF
:101910009A4201D008B010BD0024019403F5FA33B7
:101920001A6C42F400321A641A6C02F4003201920A
:10193000019A02941A6B42F001021A631B6B03F0C6
:1019400001030293029B0C230393022304930323BA
:1019500006930723079303A9064800F0D3FB22460A
:101960002146262000F068F9262000F075F9D1E71D
:101970000044004000000240FEE7FEE7FEE7FEE70D
:10198000FEE770477047704708B500F0DBF808BD08
:1019900008B5024801F096FA08BD00BFA00D00206E
:1019A00008B5024801F0D6FE08BD00BF580D002062
:1019B0000120704708B502F0DDFD162303604FF0EB
:1019C000FF3008BD08B54FF0FF31FFF7F3FFFEE72A
:1019D00070B50C461646002506E0AFF300802146A0
:1019E00001F8010B01350C46B542F6DB304670BDFF
:1019F00070B50C461646002504E014F8010BAFF351
:101A000000800135B542F8DB304670BD4FF0FF3045
:101A100070474FF400534B6000207047012070471F
:101A20000020704710B503460C4A0D490D48006868
:101A300040B10C4800680344521A934206D8094A40
:101A4000136010BD0748084C0460F2E702F092FDF5
:101A50000C2303604FF0FF30F3E700BF008001204C
:101A600000040000500E002090110020704700007C
:101A7000DFF834D0FFF7FAFF0C480D490D4A002378
:101A800002E0D458C4500433C4188C42F9D30A4A33
:101A90000A4C002301E013600432A242FBD302F09F
:101AA0007DFDFFF741FE704700800120000000200F
:101AB000C006002014A50008C00600208C110020DC
:101AC000FEE7000010B504460E4B1A784FF47A7307
:101AD000B3FBF2F30C4A1068B0FBF3F000F0C0F86F
:101AE00068B90F2C01D901200AE0002221464FF0ED
:101AF000FF3000F0A1F8054B1C60002000E0012041
:101B000010BD00BF08000020040000200C000020D1
:101B100008B50B4B1A6842F400721A601A6842F456
:101B200080621A601A6842F480721A60032000F022
:101B300071F80F20FFF7C6FFFFF76EFE002008BD0B
:101B4000003C0240034A1168034B1B780B441360AE
:101B5000704700BF540E002008000020014B186899
:101B6000704700BF540E002038B50446FFF7F6FF5B
:101B70000546B4F1FF3F02D0044B1B781C44FFF72D
:101B8000EDFF401BA042FAD338BD00BF0800002083
:101B9000002807DB00F01F02400901239340024A9E
:101BA00042F82030704700BF00E100E0002808DB69
:101BB0000901C9B200F1604000F5614080F80013EE
:101BC000704700F00F000901C9B2014B195470476A
:101BD00014ED00E000B500F00700C0F1070CBCF107
:101BE000040F28BF4FF0040C031D062B0FD9C31E92
:101BF0004FF0FF3E0EFA0CF021EA000199400EFA78
:101C000003FE22EA0E0241EA02005DF804FB002313
:101C1000EEE70000074AD36823F4E0631B041B0CC3
:101C2000000200F4E060034343F0BF6343F4003379
:101C3000D360704700ED00E010B50446054BD8684E
:101C4000C0F30220FFF7C6FF01462046FFF7AEFFB4
:101C500010BD00BF00ED00E008B5FFF799FF08BD1B
:101C60000138B0F1807F0BD24FF0E0235861054A74
:101C7000F02182F823100020986107221A61704732
:101C80000120704700ED00E070B50446866DFFF757
:101C900065FF94F83530DBB2022B06D080236365F4
:101CA000002384F83430012070BD05462268136893
:101CB00023F0160313602268536923F080035361F5
:101CC000236CE3B12268136823F0080313602268D1
:101CD000136823F00103136023681B6813F0010FDE
:101CE00011D0FFF73BFF431B052BF5D9202363657C
:101CF000032084F83500002384F83430D4E7A36C43
:101D0000002BDFD1E3E7E26D3F239340B360012373
:101D100084F83530002084F83400C5E790F8353079
:101D2000DBB2022B03D080234365012070470523DB
:101D300080F835300268136823F001031360002037
:101D40007047000010B409490C6924F440740C6118
:101D50000C6944F440740C610C6944F001040C619A
:101D60000260BFF36F8F436010BC7047003C0240BD
:101D7000074B1A6922F440721A611A6942F4007220
:101D80001A611A6942F001021A610160704700BFCE
:101D9000003C0240074B1A6922F440721A611A692A
:101DA00042F480721A611A6942F001021A610180DC
:101DB000704700BF003C0240064B1A6922F4407293
:101DC0001A611A691A611A6942F001021A610170F6
:101DD000704700BF003C0240274BDB6813F0100F38
:101DE00007D0264AD36943F01003D361224B102257
:101DF000DA60214BDB6813F0200F07D01F4AD3694C
:101E000043F00803D3611C4B2022DA601A4BDB68D5
:101E100013F0400F07D0194AD36943F00403D3618C
:101E2000154B4022DA60144BDB6813F0800F07D0AB
:101E3000124AD36943F00203D3610F4B8022DA6068
:101E40000D4BDB6813F4807F08D00C4AD36943F054
:101E50000103D361084B4FF48072DA60064BDB68F4
:101E600013F0020F07D0054AD36943F02003D36172
:101E7000014B0222DA607047003C0240580E0020FD
:101E8000094B1B69002B01DB00207047064B074AFA
:101E90005A6002F188325A601B69002B01DB002076
:101EA00070470120704700BF003C02402301674596
:101EB000034A136943F0004313610020704700BFD9
:101EC000003C024038B50446144B0022DA61FFF7AB
:101ED00045FE0546124BDB6813F4803F0AD0B4F18F
:101EE000FF3FF7D024B1FFF739FE401BA042F1D9E4
:101EF00003200DE00A4BDB6813F0010F02D0084B02
:101F00000122DA60064BDB6813F4F97F01D100206F
:101F100038BDFFF761FF0120FAE700BF580E00202F
:101F2000003C0240F8B516461B4A127E012A30D00A
:101F300004460D461F46184B01221A764CF25030CB
:101F4000FFF7C0FF90B9ACB1012C18D0022C1BD008
:101F500032463B462846FFF7F5FE4CF25030FFF77D
:101F6000B1FF0E4A136923F0010313610A4B0022EB
:101F70001A76F8BDF1B22846FFF71EFFEDE7B1B2C1
:101F80002846FFF707FFE8E731462846FFF7F0FE4F
:101F9000E3E70220EDE700BF580E0020003C0240BE
:101FA000074B1A6922F440721A611A6942F004025E
:101FB0001A611A6942EA002242F480321A617047BB
:101FC000003C0240012905D0022906D039B14FF466
:101FD000407104E04FF4807101E04FF400710B4B4D
:101FE0001A6922F440721A611A690A431A611A695D
:101FF00022F0F8021A611A6942EAC00040F00200B9
:1020000018611A6942F480321A617047003C02403C
:10201000164B1B6813F4007F10D0144B1A6822F47F
:1020200000721A601A6842F400621A601A6822F498
:1020300000621A601A6842F400721A600B4B1B6847
:1020400013F4806F10D0094B1A6822F480621A6072
:102050001A6842F480521A601A6822F480521A6098
:102060001A6842F480621A60704700BF003C024068
:10207000F8B5224B1B7E012B3ED004460E461F4B6B
:1020800001221A764CF25030FFF71CFF074670BB56
:102090004FF0FF3333602368012B16D0A568E36847
:1020A000A2681344AB4220D9217C2846FFF78AFF5F
:1020B0004CF25030FFF706FF114A136923F0FA0380
:1020C0001361074680B90135E9E76168207CFFF7B5
:1020D00067FF4CF25030FFF7F5FE0746084A1369D8
:1020E00023F00403136100E03560FFF791FF034B19
:1020F00000221A763846F8BD0227FBE7580E00206A
:10210000003C024000230F2B00F2DA8030B583B090
:1021100068E085684FEA430E032404FA0EF425EACA
:102120000405CC6804FA0EF42C438460446824EA65
:1021300002044A68C2F300129A40224342605FE000
:10214000DC08083450F8242003F00705AD004FF0F8
:102150000F0E0EFA05FE22EA0E0E0A69AA4042EAA6
:102160000E0240F824205FE0042200E0002202FA80
:102170000EF22A430234534D45F82420524A946803
:102180006FEA0C0224EA0C05D1F804E01EF4801F6B
:1021900001D04CEA04054C4CA560E46802EA040551
:1021A000D1F804E01EF4001F01D04CEA0405464CAF
:1021B000E560646802EA0405D1F804E01EF4003F1B
:1021C00001D04CEA0405404C6560246822404D680B
:1021D00015F4803F01D04CEA04023B4C22600133ED
:1021E0000F2B6BD801229A400C6804EA020C32EAE9
:1021F0000404F4D14C6804F00304013C012C88D998
:102200004A6802F00302032A09D0C4685D00032271
:10221000AA4024EA02048A68AA402243C2604A68AB
:1022200002F00302022A8BD004684FEA430E032215
:1022300002FA0EF224EA02044A6802F0030202FAE9
:102240000EF2224302604A6812F4403FC7D00022D7
:1022500001921E4A546C44F480445464526C02F45B
:1022600080420192019A9C08A51C164A52F82550FA
:1022700003F0030E4FEA8E0E0F2202FA0EF225EA49
:102280000205134A90423FF471AF02F5806290421A
:102290000ED002F5806290420CD002F5806290422E
:1022A0000AD002F5806290423FF45EAF07225EE7FB
:1022B00001225CE702225AE7032258E703B030BD4F
:1022C000704700BF00380140003C01400038024028
:1022D000000002400369194201D00120704700202C
:1022E00070470AB18161704709048161704700003D
:1022F000002800F0E08170B582B00446036813F056
:10230000010F3BD09F4B9B6803F00C03042B2CD098
:102310009C4B9B6803F00C03082B21D06368B3F53A
:10232000803F4FD0B3F5A02F52D0964B1A6822F4BD
:1023300080321A601A6822F480221A606368002BC7
:1023400050D0FFF70BFC05468E4B1B6813F4003F83
:1023500014D1FFF703FC401B6428F5D90320B1E139
:10236000884B5B6813F4800FD8D0864B1B6813F43E
:10237000003F03D06368002B00F09F81236813F0B7
:10238000020F54D07F4B9B6813F00C0F3ED07D4B57
:102390009B6803F00C03082B33D0E368002B68D054
:1023A000794B01221A60FFF7D9FB0546754B1B6874
:1023B00013F0020F54D1FFF7D1FB401B0228F5D9CF
:1023C00003207FE16F4A136843F480331360B5E75D
:1023D0006C4B1A6842F480221A601A6842F4803208
:1023E0001A60ABE7FFF7BAFB0546664B1B6813F4B0
:1023F000003FC3D0FFF7B2FB401B6428F5D9032090
:1024000060E1604B5B6813F4800FC6D15D4B1B68C5
:1024100013F0020F03D0E368012B40F05081594ABA
:10242000136823F0F803216943EAC10313602368AA
:1024300013F0080F42D063696BB3534B0122C3F80A
:10244000802EFFF78BFB05464E4B5B6F13F0020FA0
:1024500034D1FFF783FB401B0228F5D9032031E17B
:10246000484A136823F0F803216943EAC103136063
:10247000DDE7454B00221A60FFF770FB0546414B34
:102480001B6813F0020FD2D0FFF768FB401B022835
:10249000F5D9032016E13C4B0022C3F8802EFFF74C
:1024A0005DFB0546374B5B6F13F0020F06D0FFF75D
:1024B00055FB401B0228F5D9032003E1236813F0E4
:1024C000040F77D02F4B1B6C13F0805F33D10023A8
:1024D00001932C4B1A6C42F080521A641B6C03F06F
:1024E00080530193019B0125284B1B6813F4807FC7
:1024F00023D0A368012B34D0052B38D0214B1A6F81
:1025000022F001021A671A6F22F004021A67A36808
:10251000002B3DD0FFF722FB06461A4B1B6F13F032
:10252000020F46D1FFF71AFB801B41F28833984215
:10253000F3D90320C6E00025D6E7144A136843F414
:1025400080731360FFF70AFB0646104B1B6813F4F9
:10255000807FCED1FFF702FB801B0228F5D9032034
:10256000B0E0084A136F43F001031367CFE7054B50
:102570001A6F42F004021A671A6F42F001021A67DA
:10258000C5E700BF0038024000004742007000402D
:10259000FFF7E4FA0646524B1B6F13F0020F08D008
:1025A000FFF7DCFA801B41F288339842F3D903200D
:1025B00088E0EDB9A369002B00F08380484A926857
:1025C00002F00C02082A51D0022B17D0454B0022F2
:1025D0001A66FFF7C3FA0446414B1B6813F0007FED
:1025E00042D0FFF7BBFA001B0228F5D9032069E0AF
:1025F0003B4A136C23F080531364DBE7394B002212
:102600001A66FFF7ABFA0546354B1B6813F0007FDF
:1026100006D0FFF7A3FA401B0228F5D9032051E0AA
:10262000E369226A1343626A43EA8213A26A520888
:10263000013A43EA0243E26A43EA0263284A5360EA
:10264000284B01221A66FFF789FA0446244B1B68BF
:1026500013F0007F06D1FFF781FA001B0228F5D99D
:1026600003202FE000202DE000202BE0012B2BD0B9
:102670001B4B5B6803F48001E269914226D103F0B1
:102680003F02216A8A4223D1616A47F6C0721A402A
:10269000B2EB811F1ED103F44031A26A5208013A05
:1026A000B1EB024F18D103F07063E26AB3EB026F33
:1026B00014D1002006E001207047012002E0012033
:1026C00000E0002002B070BD0120FBE70120F9E727
:1026D0000120F7E70120F5E70120F3E70120F1E70A
:1026E000003802400000474208B5264B9B6803F0C3
:1026F0000C03042B41D0082B41D1224B5A6802F025
:102700003F025B6813F4800F12D01E4B5968C1F36F
:1027100088111D480023A1FB0001FEF71FFA194B89
:102720005B68C3F3014301335B00B0FBF3F008BD0A
:10273000144B5868C0F388104FEA401CBCEB000CE7
:102740006EEB0E0E4FEA8E1343EA9C634FEA8C1138
:10275000B1EB0C0163EB0E03DB0043EA5173C900DC
:1027600011EB000C43F10003990200234FEA8C2087
:1027700041EA9C51FEF7F2F9D1E70348D7E7034855
:10278000D5E700BF0038024040787D010024F40006
:10279000002800F09B8070B50D4604464F4B1B6827
:1027A00003F007038B4208D2CBB24C4A1370136874
:1027B00003F007038B4240F08B80236813F0020F75
:1027C00017D013F0040F04D0454A936843F4E05344
:1027D0009360236813F0080F04D0414A936843F4D0
:1027E000604393603E4A936823F0F003A1680B4373
:1027F0009360236813F0010F32D06368012B21D05E
:102800009A1E012A25D9364A126812F0020F61D0A9
:1028100033498A6822F0030213438B60FFF79EF965
:1028200006462F4B9B6803F00C036268B3EB820FE4
:1028300016D0FFF793F9801B41F288339842F0D904
:10284000032042E0264A126812F4003FE0D1012042
:102850003BE0234A126812F0007FD9D1012034E016
:102860001E4B1B6803F00703AB4207D9EAB21B4BB0
:102870001A701B6803F00703AB422DD1236813F0D5
:10288000040F06D0164A936823F4E053E1680B4323
:102890009360236813F0080F07D0114A936823F45C
:1028A0006043216943EAC1039360FFF71DFF0C4BAE
:1028B0009B68C3F303130B4AD35CD8400A4B1860E0
:1028C0000A4B1868FFF7FEF8002070BD0120704722
:1028D0000120FAE70120F8E70120F6E7003C02407A
:1028E00000380240B0A20008040000200C000020C4
:1028F000014B1868704700BF0400002008B5FFF7BF
:10290000F7FF044B9B68C3F38223034AD35CD84090
:1029100008BD00BF00380240A8A2000808B5FFF7B4
:10292000E7FF044B9B68C3F34233034AD35CD840B0
:1029300008BD00BF00380240A8A2000830B583B02F
:102940000446036813F0050F0ED1236813F0020F3D
:1029500036D1236813F0080F00F09B80227C4E4B89
:10296000C3F8E021002095E04C4B00229A66FFF767
:10297000F5F805464A4B1B6813F0006F06D0FFF7C9
:10298000EDF8431B022BF5D9032083E06268A368AE
:102990001B0743EA8213424AC2F884303F4B0122AC
:1029A0009A66FFF7DBF805463D4B1B6813F0006F96
:1029B000CBD1FFF7D3F8401B0228F5D9032069E0FB
:1029C00000230193364B1A6C42F080521A641B6C40
:1029D00003F080530193019B324A136843F48073E0
:1029E0001360FFF7BBF805462E4B1B6813F4807F7E
:1029F00006D1FFF7B3F8431B022BF5D9032049E0BA
:102A0000274B1B6F13F4407314D0E26802F440723A
:102A10009A420FD0224B1A6F22F440721F490120B4
:102A2000C1F8400E0020C1F8400E1A671B6F13F06A
:102A3000010F12D1E36803F44072B2F5407F1DD05C
:102A4000174A936823F4F813936015490B6FE268F3
:102A5000C2F30B0213430B677BE7FFF77FF80546D2
:102A60000F4B1B6F13F0020FE4D1FFF777F8401BF9
:102A700041F288339842F3D903200BE008498A6871
:102A800022F4F81223F0704323F4407313438B6055
:102A9000DBE7002003B030BD001047420000474292
:102AA000003802400070004038B5044603680A4A06
:102AB000DA60FFF753F805462368DB6813F0200F50
:102AC00007D1FFF74BF8401BB0F57A7FF4D903200C
:102AD00000E0002038BD00BF5F3F010070B5036813
:102AE000DA6812F0400F02D00025284670BD044677
:102AF000DA6842F08002DA60FFF730F80646002517
:102B00002368DB6813F0400FEFD1002DEDD1FFF704
:102B100025F8831BB3F57A7FF2D904236377012567
:102B2000EEE70268D36823F08003D36003689B68F4
:102B300013F0200F01D00020704710B50446FFF7B6
:102B4000B3FF10B104236377012010BD00284AD0E1
:102B500010B50446437F53B1022363772368DA68D4
:102B600012F0100F07D000200123637710BD037708
:102B7000FEF76EFEF0E7CA225A62236853225A62B9
:102B80002046FFF7ABFF28B12368FF225A620028D6
:102B9000ECD1E9E72268936823F4E00323F04003D3
:102BA000936021688A68636820690343606903430E
:102BB00013438B602368E2681A6122681369A16875
:102BC00043EA014313612046FFF7ABFF0028DBD146
:102BD0002268136C23F4802313642268136CA169A8
:102BE0000B431364D0E701207047002302E0013358
:102BF0000A38C0B20928FAD81B01DBB21843704763
:102C0000037F012B5AD070B504460E46012303778B
:102C10000223437732BB03689B6813F0400F01D156
:102C20000023CB703078FFF7E0FF05047078FFF7E2
:102C3000DCFF45EA0025B078FFF7D7FF0543F378BE
:102C400045EA83552368CA225A62236853225A628E
:102C50002046FFF743FFB8B12368FF225A620023E2
:102C6000237770BD03689B6813F0400F01D10023E8
:102C7000CB70337875782D0245EA0345B3781D4350
:102C8000F37845EA8355DDE7236805F07F3525F0C5
:102C9000FE451D602268936823F4802393602168B9
:102CA0008B68F2683069024313438B602046FFF75C
:102CB00038FF0028D0D101236377CDE70220704789
:102CC000037F012B48D070B504460E4601230377DD
:102CD00002234377CAB1CB784D782D0245EA0345EC
:102CE0008B781D430B7845EA43352368CA225A6224
:102CF000236853225A622046FFF7F0FEF0B12368A2
:102D0000FF225A620023237770BD4B7813F0100F17
:102D100003D003F0EF030A334B70F078FFF765FF41
:102D200005047078FFF761FF45EA0025B078FFF7EA
:102D30005CFF0543337845EA4335D6E7236825F041
:102D40007F4525F0C0055D602046FFF7EAFE0028BC
:102D5000D5D101236377D2E702207047030903EB43
:102D6000830300F00F0000EB4300C0B2704770B562
:102D700003689B6A4B6003681B69C3F30E038B6097
:102D800003681B68C3F305400870C3F306264E7042
:102D900003F07F058D70C3F38053CB705AB90C4696
:102DA000FFF7DCFF20703046FFF7D8FF6070284641
:102DB000FFF7D4FFA070002070BD70B503685B689A
:102DC000C3F30740C870C3F304264E7003F03F05F9
:102DD0008D70C3F342330B705AB90C46FFF7BEFF38
:102DE000E0703046FFF7BAFF60702846FFF7B6FF85
:102DF000A070002070BD10B4036A046A24F00104BE
:102E00000462846924F0F00C4CEA021223F00A03F5
:102E10000B438261036210BC704710B4036A046AFA
:102E200024F010040462846924F4704C4CEA0232E9
:102E300023F0A00343EA01138261036210BC7047D0
:102E4000836823F070030B4343F0070383607047EC
:102E500090F83D30DBB2012B2AD1022380F83D30BF
:102E60000368154A934218D0B3F1804F15D0A2F5EC
:102E70007C42934211D002F5806293420DD002F55C
:102E80008062934209D002F59A32934205D01A68C3
:102E900042F001021A60002070479A6802F00702AF
:102EA000062A07D01A6842F001021A600020704713
:102EB00001207047002070470000014070477047B4
:102EC0007047704770B504460368DE681D6915F0E9
:102ED000020F10D016F0020F0DD06FF002021A612F
:102EE0000123037703689B6913F0030F5ED0FFF79C
:102EF000E6FF0023237715F0040F12D016F0040F1D
:102F00000FD023686FF004021A610223237723682D
:102F10009B6913F4407F4FD02046FFF7D0FF00237A
:102F2000237715F0080F12D016F0080F0FD0236882
:102F30006FF008021A61042323772368DB6913F01A
:102F4000030F40D02046FFF7BAFF0023237715F088
:102F5000100F12D016F0100F0FD023686FF0100270
:102F60001A61082323772368DB6913F4407F31D08B
:102F70002046FFF7A4FF0023237715F0010F02D0AE
:102F800016F0010F2DD115F0800F02D016F0800F32
:102F90002FD115F0400F02D016F0400F31D115F0AF
:102FA000200F02D016F0200F33D170BDFFF786FF3F
:102FB0002046FFF785FF9CE72046FFF77FFF20466E
:102FC000FFF77EFFABE72046FFF778FF2046FFF7CD
:102FD00077FFBAE72046FFF771FF2046FFF770FF43
:102FE000C9E723686FF001021A612046FEF766FA0E
:102FF000C9E723686FF080021A61204600F05FF98C
:10300000C7E723686FF040021A612046FFF759FFB7
:10301000C5E723686FF020021A61204600F04EF9E0
:10302000C3E700000368294A90420ED0B0F1804FF8
:103030000BD0A2F57C42904207D002F5806290420C
:1030400003D002F58062904203D123F070034A68F6
:1030500013431E4A90421AD0B0F1804F17D0A2F508
:103060007C42904213D002F5806290420FD002F56C
:10307000806290420BD002F59A32904207D002F55E
:103080008062904203D002F58062904203D123F423
:103090004073CA68134323F080034A6913430360F3
:1030A0008B68C3620B688362084B98420AD0012385
:1030B0004361036913F0010F03D0036923F0010397
:1030C000036170470B690363F1E700BF0000014033
:1030D00040B310B5044690F83D30F3B1022384F8B4
:1030E0003D30214651F8040BFFF79CFF012384F883
:1030F000463084F83E3084F83F3084F8403084F81D
:10310000413084F8423084F8433084F8443084F805
:10311000453084F83D30002010BD80F83C30FEF78B
:10312000BBFBDBE70120704710B4846824F47F4CBC
:1031300042EA03220A4342EA0C02826010BC704752
:1031400090F83C30012B78D010B50446012380F86C
:103150003C30022380F83D300268936823F47F43BB
:1031600023F0770393600B68602B4CD023D8402B5F
:1031700054D011D8202B03D00AD80BB1102B05D175
:1031800019462068FFF75CFE002028E0012026E0B9
:10319000302BF5D0012022E0502B0AD1CA684968B3
:1031A0000068FFF728FE50212068FFF749FE002045
:1031B00015E0012013E0B3F5805F3AD0B3F5005F6E
:1031C00014D0702B37D1CB684A6889680068FFF744
:1031D000ABFF2268936843F07703936000200123DC
:1031E00084F83D30002384F83C3010BDCB684A6839
:1031F00089680068FFF798FF2268936843F480436A
:1032000093600020EBE7CA6849680068FFF705FE95
:1032100060212068FFF714FE0020E0E7CA684968D3
:103220000068FFF7E8FD40212068FFF709FE002055
:10323000D5E70020D3E70120D1E702207047000046
:1032400090F83C20012A34D010B40346012280F8C3
:103250003C20022280F83D2002685068946820F0EB
:10326000700C086840EA0C0050601A6812488242EC
:1032700012D0B2F1804F0FD0A0F57C4082420BD02B
:1032800000F58060824207D000F58060824203D062
:1032900000F59A30824204D124F080044968214329
:1032A0009160012283F83D20002083F83C0010BC8F
:1032B00070470220704700BF000001407047704710
:1032C000026802F10C0353E8003F23F490730C32C0
:1032D00042E800310029F3D1026802F1140353E8F7
:1032E000003F23F00103143242E800310029F3D1FA
:1032F000036B012B05D0202380F8423000230363A9
:103300007047026802F10C0353E8003F23F01003FA
:103310000C3242E800310029F3D1ECE790F841305B
:10332000DBB2212B01D0022070478368B3F5805FA8
:1033300017D0036A5A1C02621A7803685A60C38C59
:103340009BB2013B9BB2C3844BB90268D36823F0A4
:103350008003D3600268D36843F04003D360002049
:1033600070470369002BE4D1036A1B880268C3F32A
:1033700008035360036A02330362E0E710B50446B2
:103380000268136923F44053C1680B4313618368D7
:1033900002691A4343691A43C3691A430168CB6837
:1033A00023F4164323F00C031343CB6002685369E4
:1033B00023F4407381690B4353610368314A93429C
:1033C00006D002F58062934202D0FFF797FA01E03F
:1033D000FFF7A4FAE369B3F5004F29D000210318E1
:1033E00049411B1841F10001C90041EA5371DB005A
:1033F000181863684FEA83024FEA937341F10001A2
:10340000FDF7ACFB204AA2FB00314909642303FB12
:1034100011031B013233A2FB03235B0903F0F0020B
:1034200002EB011203F00F03216813448B6010BDFF
:103430000023021843EB0301121841F10001C900F7
:1034400041EA5271D200101841F1000162689218ED
:103450005B41FDF783FB0C4AA2FB00314909642361
:1034600003FB1103DB003233A2FB03235B095A0089
:1034700002F4F87202EB011203F00703216813440F
:103480008B60D4E7001001401F85EB512DE9F0431C
:1034900083B005460E4617469946DDF828802B680E
:1034A0001C6836EA04040CBF01240024BC4228D165
:1034B000B8F1FF3FF3D0FEF751FBA0EB0900404508
:1034C00023D8B8F1000F22D02B68DA6812F0040F6D
:1034D000E5D0802EE3D0402EE1D01A6812F0080F1C
:1034E000DDD0002401941A6801925B680193019B6E
:1034F0002846FFF7E5FE08236B6485F8404001206D
:1035000000E0002003B0BDE8F0830320FAE70320C9
:10351000F8E760B310B5044690F8413013B32423A4
:1035200084F841302268D36823F40053D3602046E6
:10353000FFF724FF2268136923F490431361226884
:10354000536923F02A0353612268D36843F400537C
:10355000D36000206064202384F8413084F8423036
:10356000606310BD80F84030FEF7C8F9D7E701204E
:1035700070472DE9F04182B01E4690F84130DBB231
:10358000202B56D104460D469046002955D00AB945
:1035900001204FE000234364212380F84130FEF7EF
:1035A000DDFA0746A4F82480A4F82680A368B3F5C2
:1035B000805F02D04FF0000814E023692BB34FF076
:1035C00000080FE0202384F84130032032E038F86F
:1035D000023B2268C3F308035360E28C92B2013AC3
:1035E00092B2E284E38C9BB293B100963B460022F8
:1035F00080212046FFF74AFF0028E3D1002DE6D0C6
:1036000015F8012B23685A60E7E7A8460025E9E78B
:1036100000963B46002240212046FFF737FF18B9AD
:10362000202384F8413005E0202384F84130032032
:1036300000E0022002B0BDE8F0810120FAE7704707
:1036400008B50168CA6822F04002CA60202280F8EA
:103650004120FFF7F4FF002008BD704708B5806BDC
:103660000023C385C384FFF7F8FF08BD704790F8B7
:103670004230DBB2222B69D18368B3F5805F4FD033
:10368000826AB3F5805F04D0002B56D10369002B0A
:1036900053D103685B681370836A01338362C38DFF
:1036A0009BB2013B9BB2C385002B51D100B583B0C7
:1036B0000268D36823F02003D3600268D36823F440
:1036C0008073D3600268536923F0010353612023A0
:1036D00080F8423000234363036B012B33D1002376
:1036E0000363026802F10C0353E8003F23F0100368
:1036F0000C3242E800310029F3D103681A6812F055
:10370000100F06D0002201921A6801925B680193A3
:10371000019B818DFFF7AAFF002003B05DF804FB39
:103720000269002AACD1826A03685B68C3F30803AC
:103730001380836A02338362B1E703685B6803F036
:103740007F031370A8E7FDF7ABFEE5E702207047A3
:103750000020704710B582B0044602681368D06834
:10376000516913F00F0F09D113F0200F0CD010F096
:10377000200F09D02046FFF77AFF16E011F0010173
:1037800015D110F4907F12D1216B012979D013F05B
:10379000800F03D010F0800F40F0148113F0400F21
:1037A00003D010F0400F40F0118102B010BD13F0B3
:1037B000010F06D010F4807F03D0626C42F001024A
:1037C000626413F0040F04D019B1626C42F002027B
:1037D000626413F0020F04D019B1626C42F004026B
:1037E000626413F0080F07D010F0200F00D119B158
:1037F000626C42F008026264626C002AD5D013F059
:10380000200F02D010F0200F29D123685B6903F04C
:103810004003626C12F0080F00D163B32046FFF73B
:103820004FFD23685B6913F0400F20D0226802F13E
:10383000140353E8003F23F04003143242E8003100
:103840000029F3D1E36B73B1624A1A65E06BFEF7AE
:1038500065FA0028A9D0E06B036D9847A5E72046DC
:10386000FFF705FFD1E72046FFF7F7FE9DE720466B
:10387000FFF7F3FE99E72046FFF7EFFE00236364AE
:1038800093E713F0100F82D010F0100F3FF47FAFCA
:10389000002301931368019353680193019B5369BB
:1038A00013F0400F52D0E26B13685B689BB2002BA1
:1038B0003FF47BAFA18D99427FF677AFE385D36963
:1038C000B3F5807F37D0226802F10C0353E8003F44
:1038D00023F480730C3242E800310029F3D12268CE
:1038E00002F1140353E8003F23F00103143242E8CD
:1038F00000310029F3D1226802F1140353E8003F9C
:1039000023F04003143242E800310029F3D1202390
:1039100084F8423000232363226802F10C0353E849
:10392000003F23F010030C3242E800310029F3D1AC
:10393000E06BFEF7A9F902236363A18DE38D9BB2CF
:10394000C91A89B22046FFF791FE2EE7A18DE38DBB
:103950009BB2C91A89B2E38D9BB2002B3FF425AF0D
:1039600000293FF422AF226802F10C0353E8003F24
:1039700023F490730C3242E800300028F3D122681F
:1039800002F1140353E8003F23F00103143242E82C
:1039900000300028F3D1202384F842300023236331
:1039A000226802F10C0353E8003F23F010030C32AD
:1039B00042E800300028F3D1022363632046FFF77A
:1039C00055FEF2E62046FFF7A9FCEEE62046FFF79B
:1039D00037FEEAE65D36000881628285C2850023F3
:1039E0004364222380F84230036923B10268D3681C
:1039F00043F48073D3600268536943F00103536159
:103A00000268D36843F02003D3600020704708B5F4
:103A100090F84230DBB2202B08D149B10AB901201D
:103A200008BD00230363FFF7D7FFF9E70220F7E79C
:103A30000120F5E72DE9F047089D0E4604460F46A4
:103A4000002B4AD194468C45B2FA82F260D942B139
:103A5000C2F12003974020FA03F30CFA02FC1F4343
:103A600094404FEA1C4E1FFA8CF6B7FBFEF1230C74
:103A70000EFB117743EA074301FB06F098420AD98F
:103A80001CEB030301F1FF3780F01581984240F2EF
:103A90001281023963441B1AA4B2B3FBFEF00EFB81
:103AA000103344EA034400FB06F6A6420AD91CEB95
:103AB000040400F1FF3380F00081A64240F2FD8053
:103AC0006444023840EA0140A41B00211DB1D440E7
:103AD0000023C5E90043BDE8F0878B4205D90DB14D
:103AE000C5E9000100210846F5E7B3FA83F1002992
:103AF00046D1B34202D3824200F2F580841A66EBCB
:103B0000030201201746002DE5D0C5E90047E2E792
:103B1000002A40F09380A1EB0C034FEA1C471FFAE8
:103B20008CFE0121B3FBF7F607FB1630230C43EAAA
:103B300000430EFB06F0984208D91CEB030306F184
:103B4000FF3802D2984200F2D08046461B1AA4B237
:103B5000B3FBF7F007FB103344EA03440EFB00FE0F
:103B6000A64508D91CEB040400F1FF3302D2A64598
:103B700000F2B6801846A4EB0E0440EA0640A5E722
:103B8000C1F120078B4022FA07FC4CEA030C06FA2D
:103B900001FE20FA07F426FA07F344EA0E0400FABD
:103BA00001F84FEA1C404FEA1449B3FBF0FE1FFA3C
:103BB0008CF600FB1E3349EA03430EFB06F99945D8
:103BC00002FA01F20BD91CEB03030EF1FF3A80F06D
:103BD0008580994540F28280AEF1020E6344A3EBEA
:103BE0000909A4B2B9FBF0F300FB139944EA0944B4
:103BF00003FB06F6A64208D91CEB040403F1FF30D0
:103C000068D2A64266D9023B644443EA0E40A41B34
:103C1000A0FB02E6B4427346B14652D34FD05DB129
:103C2000B8EB030264EB090404FA07F722FA01F384
:103C30001F43CC40C5E9007400214CE7C2F12001CC
:103C400020FA01F30CFA02FC26FA01F19640334304
:103C50004FEA1C471FFA8CFEB1FBF7F007FB10166A
:103C6000190C41EA064100FB0EF68E4204FA02F4FA
:103C700008D91CEB010100F1FF382DD28E422BD95F
:103C800002386144891B9BB2B1FBF7F607FB1611A2
:103C900043EA014306FB0EF1994208D91CEB0303EA
:103CA00006F1FF3814D2994212D9023E63445B1ADE
:103CB00046EA004136E73946EDE6184602E7F045A8
:103CC000ADD2BEEB020366EB0C060138B146A6E7A7
:103CD0004646ECE7034698E74046D3E7D6467EE7FC
:103CE0006444023847E708460DE7023E63442DE787
:103CF000024B0146186800F00BB800BF2C040020EE
:103D0000024B0146186800F0E5BC00BF2C040020FF
:103D10002DE9F04F01F10B05162D83B0064623D88F
:103D2000102900F2AF8000F0A5FA10251823022018
:103D3000B74F3B44A3F108025C68944200F01F8136
:103D40006368E268A16823F00303CA602344304635
:103D500091605A6842F001025A6000F091FA08340A
:103D6000204603B0BDE8F08F35F0070500F18A80EA
:103D7000A94200F2878000F07DFAB5F5FC7FC0F023
:103D80006E816B0A00F08280042B00F21E81AB0969
:103D900003F1390003F1380EC3009D4F3B44A3F1FA
:103DA000080C5C68A44507D10DE0002AE16880F2A8
:103DB000E0808C4507D00C46636823F003035A1B50
:103DC0000F2AF2DD7046DFF84C823C69444500F072
:103DD000BD80636823F0030CACEB05030F2B00F3ED
:103DE0004281002BC7E9048880F22D81BCF5007F59
:103DF000D7F804E080F0C9804FEADC0101314FEAD6
:103E00005C1C012303FA0CF357F83120A2604EEA40
:103E1000030E07EBC103083BE360C7F804E047F873
:103E20003140D46083104FF0010C0CFA03FCF445D0
:103E300032D81CEA0E0F08D120F003004FEA4C0CD8
:103E40001CEA0E0F00F10400F8D007EBC00AD646BA
:103E50008146DEF80C300BE0596821F003014A1B63
:103E60000F2A1C46DB6800F3BC80002A80F2DE804B
:103E70009E45F1D109F1010919F0030F0EF1080E69
:103E8000E7D119E10C233360002469E74FF4007394
:103E900040204FF03F0E80E7BC68636823F00309C1
:103EA000A94503D3A9EB05030F2B52DC5A4B1B6822
:103EB000082003F1100804EB0903009300F060FBF5
:103EC000564A13680133A844834605D008F1FF38E9
:103ED0008044434203EA08084146304600F038FB7C
:103EE000B0F1FF3F4D4A824600F0D88004EB090351
:103EF000834200F2D1804A4B186840440BF1FF31F5
:103F00001860844640F0FB801AEA010F40F0F78009
:103F1000D7F808A0C84448F00102CAF80420414B71
:103F20001968814238BF18603F4B1968814238BF19
:103F30001860544622F00308A845A8EB050301D3F6
:103F40000F2B06DC304600F09BF99DE7D7F804E024
:103F500068E7621943F0010345F0010565603046EA
:103F6000BA60536000F08CF90834204603B0BDE815
:103F7000F08FA2682344D16030468A60E9E6DC68AD
:103F8000A3427FF4DDAE02301DE7BCF5206F4FEA9F
:103F90005C227AD3142A00F2128102F15C03DB0066
:103FA0005B32F918FB580839994203D1ECE09B6861
:103FB000994204D05A6822F003026245F7D8D968C2
:103FC000C4E902318C60DC602CE7142B69D9542BD6
:103FD00000F2FE802B0B03F16F0003F16E0EC300A5
:103FE000DBE6D4F808C03046661945F00105656087
:103FF000CCF80C30C3F808C042F00103C7E90466EE
:10400000C6E902887360625000F03AF90834A7E606
:104010001800002020000020A80E00201000002022
:10402000780E0020A40E0020A00E0020214430466F
:104030004A6842F001024A6054F8082FD3609A603F
:1040400000F01EF98CE6A4443046DCF8043043F05E
:104050000103CCF8043000F013F9083480E6E808D6
:1040600005F1080364E6621943F0010145F001051A
:1040700065603046C7E90422C2E90288516044F80D
:104080000C3000F0FDF808346AE64FEA9C1202F1A9
:104090003903DB00383284E7BC4228D0BC68626850
:1040A00048E703F15C0003F15B0EC30075E65AF8C4
:1040B0000839534540F0DA8010F0030F00F1FF306B
:1040C000F5D17B6823EA0C037B604FEA4C0C9C45DE
:1040D0003FF6E2AEBCF1000F04D1DDE64FEA4C0C36
:1040E00009F104091CEA030FF8D04846ADE6604B1D
:1040F000186808EB000C0BF1FF31C3F800C0106822
:1041000001306FD004EB0902AAEB020262441A608C
:104110001AF00702CDE9002340D0C2F10802924410
:10412000D04408EA01005A44121A02EA010B594627
:10413000304600F00DFA421C019B6FD0A0EB0A0044
:1041400000EB0B081868C7F808A048F001025844B3
:10415000BC42CAF8042018603FF4E1AEB9F10F0F79
:1041600043D96168A9F10C0222F0070201F00101B4
:10417000114361604FF0050CA1180F2AC1E901CC71
:1041800054D8DAF80420CAE692104FF0010C0CFA69
:1041900002F24EEA020EC7F804E011E70AEB080249
:1041A0000A40ABEB020202EA010B5946304600F02E
:1041B000CFF9431C019BC1D1DDF800B0C2E7542AFE
:1041C00017D84FEA1C3202F16F03DB006E32E8E6CB
:1041D000B3F5AA7F17D8EB0B03F1780003F1770E44
:1041E000C300DAE5C2F800A092E70123CAF8043060
:1041F000A8E6B2F5AA7F24D84FEADC3202F17803B0
:10420000DB007732CDE640F25452934224D8AB0C17
:1042100003F17D0003F17C0EC300BEE5009A083A6D
:104220009044A8EB0A084FF0000B8BE7304604F1EE
:104230000801009300F04EFA009BD7F808A0186818
:104240009FE740F254539A420CD84FEA9C4202F145
:104250007D03DB007C32A4E64FF47E737F204FF0B9
:104260007E0E9AE54FF47E737E229AE67B682CE7F9
:10427000780E0020014800F0BDB900BFE80F002013
:10428000014800F0B9B900BFE80F00200EB410B526
:104290009DB06FF000411FAB04910791094953F89D
:1042A000042B02900690084C0868019302A905941B
:1042B00000F00CFB029B00221A701DB0BDE81040FC
:1042C00003B070472C0400200802FFFF024A034994
:1042D000034800F0C9B800BF20040020396400087A
:1042E000300400200C4B4168994210B5044601D0BF
:1042F00002F0A2F8A168094B994202D0204602F0D0
:104300009BF8E168064B994204D02046BDE8104076
:1043100002F092B810BD00BFAC0E0020140F0020B8
:104320007C0F00202DE9F843314A324C3249DFF846
:10433000CC90DFF8CC80334F116000250423294650
:10434000082204F15C00C4E903352F4EA560C4E9DE
:104350000055C4E90555656600F0A8F804F1580059
:10436000C4E90749C4E90987E66200F03FF9294634
:10437000264B6367082204F1C400C4E91A55C4E956
:104380001E552567C4F8CC50C4F8805000F08EF854
:1043900004F1680304F1C000C4F88430C4E9229831
:1043A000C4E9247600F022F9194BC4F8DC30294620
:1043B00004F596700822C4E93455C4E93855C4F8A8
:1043C000D850C4F83451C4F8E85000F06FF804F144
:1043D000D003C4E93D87C4F8F09004F59470C4F8A4
:1043E000FC60C4F8EC30BDE8F84300F0FFB800BF53
:1043F000E40F0020AC0E0020CD42000875660008D6
:1044000099660008D9660008FD66000809000100E9
:104410001200020010B504460A4800F0EBF8636B86
:1044200023B9094B094A1B68626323B1BDE81040F8
:10443000044800F0E1B8FFF775FFBDE810400148FF
:1044400000F0DAB8F00F0020E40F0020E542000889
:10445000014800F0CFB800BFF00F0020014800F085
:10446000CBB800BFF00F00202DE9F843074688467F
:1044700016464FF00009D6E90154013D10D4A38936
:10448000012B08D9B4F90E3001332146384602D049
:10449000C04749EA0009013D6B1C04F16804EED1F4
:1044A0003668002EE7D14846BDE8F883830730B56B
:1044B00047D0541E002A3ED0CAB2034601E0013C58
:1044C00039D303F8012B9D07F9D1032C2CD9CDB298
:1044D00005EB05250F2C05EB054535D9A4F1100298
:1044E00022F00F0C03F1100EE6444FEA121C1A469C
:1044F000C2E90055C2E9025510327245F8D10CF1FB
:10450000010214F00C0F03EB021204F00F0C13D095
:10451000ACF1040323F003030433134442F8045BB7
:104520009342FBD10CF003042CB1C9B21C4403F834
:10453000011BA342FBD130BD64461346002CF4D1CD
:10454000F9E703461446C0E71A46A446E0E700BF71
:1045500038B5074D0022044608462A60FDF762FA86
:10456000431C00D038BD2B68002BFBD0236038BD26
:10457000F80F0020014B1868704700BF2C04002082
:10458000082802D14FF48050704708B5FFF7F2FFBA
:10459000162303604FF0FF3008BD00BF70B50F4B0E
:1045A0000F4DAB42A3EB050607D0B610002455F81B
:1045B000043B01349847A642F9D805F04DFD094D5A
:1045C000094B5E1BAB424FEAA60606D0002455F805
:1045D000043B01349847A642F9D870BD08A50008ED
:1045E00008A5000808A5000810A50008704700BF2E
:1045F000704700BF704700BF704700BF024B13B148
:10460000024800F005B87047000000002968000863
:10461000002301461A46184602F04EB92DE9F84328
:10462000064608208946FFF7ABFFDFF89C80054669
:104630003046FFF71FFED8F808305F6827F0030701
:10464000A7F11104A4EB09042C44B4FBF5F4013CDC
:1046500005FB04F4A54208DC00213046FFF778FF93
:10466000D8F808303B44984205D03046FFF708FEA2
:104670000020BDE8F88361423046FFF769FF013052
:104680000FD0124AD8F808303F1B47F001075F608F
:10469000136830461B1B1360FFF7F2FD0120BDE8D5
:1046A000F88300213046FFF753FFD8F80820831A1B
:1046B0000F2BDADD43F001035360054B03491B6800
:1046C000C01A0860D1E700BF18000020780E002053
:1046D0001000002000297CD0F8B50C460646FFF7F4
:1046E000C9FD54F8043C764FA4F1080523F00101FC
:1046F0006818D7F808C04268844522F0030200F029
:104700008380DB07426000EB020C33D454F8084C82
:10471000DCF804302D1B2144AC6807F1080C64451B
:1047200003F0010364D0D5F80CE0C4F80CE0CEF837
:104730000840002B00F0818041F001036B600160B4
:10474000B1F5007F22D27868CB08012249090133F4
:104750008A40024357F833107A6007EBC302083AE5
:10476000C5E9021247F83350CD603046BDE8F84045
:10477000FFF786BDDCF80430DB072BD541F00103E1
:10478000B1F5007F44F8043C0160DCD3B1F5206F43
:104790004FEA512353D28B0903F1390003F1380258
:1047A000C300F818FB580838984203D161E09B68B1
:1047B000984204D05A6822F003028A42F7D8D86897
:1047C000C5E902308560DD603046BDE8F840FFF79E
:1047D00057BD7047114407F1080C836863453FD00B
:1047E000C268DA60936041F001036B606950A7E72B
:1047F000002B5FD10A44D0E90213CB60996042F0EC
:1048000001036B60AA50B0E70A44D90707D454F8F3
:10481000083CED1A1A44D5E90213CB60996042F0C6
:1048200001036B60274BBD601B6893429DD8264BEC
:1048300030461968FFF7F2FE97E71144CDE7142BD5
:1048400008D9542B1DD80B0B03F16F0003F16E0236
:10485000C300A6E703F15C0003F15B02C300A0E71D
:1048600041F00103C7E90455C5E902CC6B6069500A
:104870007BE779689210012404FA02F20A437A6015
:104880009EE7B3F5AA7F06D8CB0B03F1780003F1BE
:104890007702C30085E740F25452934206D88B0C4E
:1048A00003F17D0003F17C02C3007AE74FF47E73CD
:1048B0007E2276E741F001036B60016055E700BF9F
:1048C0001800002014000020A80E00202DE9F04F51
:1048D000DDB00C460D9115460F93834601F04CFF59
:1048E000036819931846FCF7ABF9002117900822CA
:1048F0002CA8FFF7DBFDA389190603D52369002B3C
:1049000000F04B87002333AA0024CDE93133CDE9F1
:104910001B331293189320931D930A930023CDE920
:104920001434309214462E46B246764BD3F8E450F7
:1049300001F01CFF2CAA0346009228A952465846B3
:10494000A847002800F0B180C0F2A780289A252A45
:10495000034601D09A44E8E7BAEB0607054640F063
:10496000A88000231A464FF0FF31CDE908218DF8C9
:1049700097300B930AF1010A9AF800300AF1010A04
:10498000A3F120025A2A00F2BF80DFE812F02203CE
:10499000BD00BD001B03BD00BD00BD006A00BD0021
:1049A000BD003A025602BD004502FF02BD00F802FA
:1049B0005B005B005B005B005B005B005B005B001F
:1049C0005B00BD00BD00BD00BD00BD00BD00BD0061
:1049D0003701BD00BA016302370137013701BD005D
:1049E000BD00BD00BD005C02BD00BD00CD02BD002C
:1049F000BD00BD00E401BD00E502BD00BD00AD0687
:104A0000BD00BD00BD00BD00BD00BD00BD00BD00BE
:104A10003701BD00BA0116023701370137014C02D8
:104A200016027F00BD008B02BD007C02AB069D021A
:104A30007F00BD00E4017C00A806BD00BD00D306D8
:104A4000BD007C00A3F1300200211AF8013B01EB0C
:104A5000810102EB4101A3F13002092AF5D90B9142
:104A60008EE7584601F088FE43681D931846FCF710
:104A7000E7F820900546584601F07EFE83681B93B8
:104A8000002D40F0B0859AF8003077E7089B43F09E
:104A9000200308939AF8003070E7082200212CA820
:104AA000FFF704FD01239A443FE7BAEB06070546EA
:104AB00010D0329B3B443293319B0133072BC4E926
:104AC0000067319315DC08340A9B3B440A93002DA0
:104AD0007FF447AF329B002B41F095810D9B9B8962
:104AE00003F04003002B41F0BE830A985DB0BDE89F
:104AF000F08F0D9930AA584602F040FF0028EDD102
:104B000033ACE1E7540500201093002BE2D00022E3
:104B10008DF80C3101238DF8972006930E920C939B
:104B2000099216921392119243AE089B13F002035E
:104B300002D00699023106910899329D11F084083D
:104B400005D10B9906980F1A002F00F39E806AB1C9
:104B500001226260319A013201350DF19701072A75
:104B600032953192216000F3D68308346BB1319BCA
:104B700026AA013302352260072B4FF0020232953C
:104B80003193626000F3BD830834B8F1800F00F008
:104B9000C182099B0C9A9F1A002F00F3FB82089B8D
:104BA000DA0500F121820C9B63601D44319B266075
:104BB0000133072B3295319300F342830834089B6D
:104BC0005A0705D50B9B069A9E1A002E00F3B08358
:104BD000DDE90A3206998A42ACBF9B185B180A933A
:104BE000002D40F00E83002331930E9B1BB10E99D4
:104BF0005846FFF76FFD33AC564695E610930F9B72
:104C0000073323F00703F3E802780F9328F00043FB
:104C10001F931E97DDE91E01A74B4FF0FF32CDE930
:104C20001478FCF713F9002840F00385DDE91E0134
:104C3000A14B4FF0FF32FBF7FBFE002840F0F98458
:104C40000022002338464146FBF7E8FE002841F0E9
:104C50001E809DF89720089B984E23F080030893B0
:104C6000974B10994729D8BF1E46002303210E9366
:104C700006910C910993169313931193002A3FF414
:104C800054AF069B013306934FE7102F319A41F33F
:104C90003E82DFF830C2CDF868C0214628460D9C20
:104CA00021934FF01009654604E0103F102F01F1E9
:104CB000080115DD01321030072AC1E90059CDE99C
:104CC0003120F2DD30AA2146584602F057FE002876
:104CD00040F09F82103F102FDDE9312033A9E9DC3D
:104CE000219B0C46054601321A9921603D44072A52
:104CF000CDE93125676000F3D5869DF8972008340B
:104D000025E70F9A1093432B02F1040503D0089B6B
:104D1000DA0640F11385082200212EA8FFF7C6FB12
:104D20000F9B43AE1A6831462EAB584601F090FDFA
:104D3000034601330C9001F091820C9B23EAE3734C
:104D4000069300220F958DF897200E9209921692E5
:104D500013921192E9E60F9F109357F8046B00230A
:104D60008DF89730002E00F02785109B532B00F014
:104D7000C086089B13F01003119340F0BA86099B7C
:104D8000002BC1F24B8011991A463046FBF700FF09
:104D90000E90002801F0A0820E9B11999DF897209B
:104DA0000F979B1B0C9323EAE373069373230991DC
:104DB000169113910E91109360E71093089B9B0638
:104DC00050D50F9B073323F007031A46596852F852
:104DD000083B0F920A460029C0F2CD8309990029A9
:104DE000C0F28082089921F0800553EA020140F068
:104DF0007A82099A002A40F07B8208950C925CAE78
:104E00005EE10F9B53F8042B0B92002A80F2DD83A6
:104E10000B9A0F9352420B92089B43F004030893A2
:104E20009AF80030AAE59AF80030682B00F0AB84BD
:104E3000089A42F040020892A0E52B238DF89730A3
:104E40009AF800309AE5089B43F0080308939AF813
:104E5000003093E51093089B43F010030893089BE0
:104E60009B06AED408990F9ACF0652F8043B00F186
:104E7000CA8308994E0640F1B1860F9243F3C032BF
:104E800011461BB2A7E7089B9D0640F1C1830F9B0B
:104E90000A9A1B681A60D2175A600F9B04330F934B
:104EA000564641E59AF800306C2B00F06284089A6F
:104EB00042F01002089261E5FFFFEF7FF4A00008C6
:104EC000F0A00008D0A200080F9A089B43F002054A
:104ED00052F8043B0F9247F63002ADF89820782044
:104EE000B14A18920221002210900020099E8DF8EC
:104EF0009700002EC0F2CD8025F08000089053EA84
:104F0000020040F0C580002E40F0DC85002940F012
:104F1000398315F001030C9300F05C8330238DF886
:104F20006F310DF26F16CBE01093089B43F0100326
:104F30000893089B13F0200200F0F8820F9B0733C0
:104F400023F0070319465A6851F8083B0F91089956
:104F500021F480650021C8E71093089B43F01005F9
:104F600015F0200200F0F1820F9B073323F00703B6
:104F700019465A6851F8083B0F910121B5E7089B83
:104F800043F0800308939AF80030F7E4504610F895
:104F9000013B2A2B01F01C82A3F13002092A98BFA1
:104FA000002101F2F58010F8013B01EB810102EBD9
:104FB0004101A3F13002092AF5D941EAE1720992CF
:104FC0008246DDE4089B43F0010308939AF8003021
:104FD000D4E49DF897209AF80030002A7FF4CEACF4
:104FE00020228DF89720C9E4109B652B40F3328175
:104FF000DDE9140100220023FBF706FD002800F084
:10500000D281319B694A2260013301350122072B8D
:1050100032953193626000F360850834279B129AC1
:10502000934280F2CD82179B199A1D44C4E9002354
:10503000319B32950133072B319300F38F83083472
:10504000129B5E1E002E7FF7BAAD102E319BDFF84B
:10505000609140F3EB80DDF83480102704E00834E1
:10506000103E102E40F3E28001331035072BC4E9C7
:105070000097CDE93135F2DD30AA4146584602F0BD
:105080007DFC002840F0C580DDE9313533ACE7E731
:10509000089D012900F0278102295CAE1FD11898D4
:1050A00003F00F011B09415C06F8011D43EA02737E
:1050B000120953EA0201F3D15CAB9B1B08950C93D8
:1050C00009990C989DF8972081424FF00003B8BFD2
:1050D00001460E930691169313931193CEE503F0B8
:1050E0000701DB0843EA4273D208303153EA020772
:1050F000304606F8011DF2D1EF07DDD53029DBD0AF
:105100003023023806F8013C5CAB1B1A08950C935F
:105110000646D5E70B9B069A9F1A002F7FF739ADFD
:10512000102F319BDFF8889022DD2A464FF01008BF
:105130004D46DDF8349004E0103F102F04F10804D0
:1051400014DD01331032072BC4E90058CDE93132A8
:10515000F2DD30AA4946584602F010FC002858D12A
:10516000103F102FDDE9313233ACEADCA946154699
:1051700001333D44072BCDE93135C4F80090676019
:1051800000F3EC84099B0C9A9F1A002F04F1080489
:105190007FF705AD102F319BDFF8149025DD2A46EF
:1051A0004FF010080D9D0AE000A1000830A1000892
:1051B000C0A20008103F102F04F1080414DD0133D1
:1051C000B0491032072BC4E90018CDE93132F1DDC6
:1051D00030AA2946584602F0D1FBD0B9103F102F13
:1051E000DDE9313233ACEADC154601333D44072BAF
:1051F000CDE93135C4F80090676000F38B81083445
:10520000CDE40D9930AA584602F0B8FB00283FF4CF
:10521000EAAC0E9B002B3FF461AC0E995846FFF7A9
:1052200059FA0D9B9B8903F040035BE4013335443D
:10523000072BC4F800906660CDE931357FF7BEAC2E
:105240000D9930AA584602F099FB0028E1D1329D11
:1052500033ACB4E4129B319F012B05F1010507F13A
:10526000010704F1080840F311810123072FCDE95C
:1052700031752660636000F38981179B199A0137A5
:105280001D44072FC8E90023CDE9317500F38B8158
:1052900008F10808129BDDE914015C1E00220023BE
:1052A000FBF7B2FB002840F00A81013701362544A4
:1052B000072FCDE93175C8F80060C8F8044000F345
:1052C000F18008F108081C9BC8F8043001371D4420
:1052D000072F2AABCDE93175C8F80030B0DC08F1F2
:1052E00008046CE4089D0A2B72F1000180F05A83D7
:1052F00030338DF86F31012308950C930DF26F1642
:10530000DEE60D9930AA584602F038FB002880D11D
:10531000329D33AC39E40D991A9330AA584602F005
:105320002DFB00287FF475AF329D1A9B33AC1DE432
:10533000102E319B40F34087DFF84C91DDF834802C
:10534000CDF86890102704E0103E102E04F10804F8
:1053500015DD01331035072BC4E90097CDE9313550
:10536000F2DD30AA4146584602F008FB00287FF4DF
:1053700050AF103E102EDDE9313533ACE9DC01339E
:105380001A9A3544072BC4E90026CDE931357FF759
:105390001FAC0D9930AA584602F0F0FA00287FF4AD
:1053A00038AF329D14E42799002940F34C83DDE99E
:1053B00011839845A8BF9846B8F1000F0ADD319BCC
:1053C00001334544072BC4E900683295319300F35B
:1053D00072860834119FB8F1000FA8BFA7EB080729
:1053E000002F00F3FA81119B33440993089B5F055A
:1053F00000F11A82279B129A9342C0F2A482089A63
:10540000D00700F1A082129AB718D61A099BFF1A8A
:10541000B742A8BF3746002F0ADD2360319B676083
:1054200001333D44072B3295319300F3A2860834B3
:10543000002FA8BFF61B002E7FF7C1AB102E319BAB
:10544000DFF840907FF7F2AEDDF83480102704E0FB
:105450000834103E102E7FF7E9AE01331035072BCC
:10546000C4E90097CDE93135F2DD30AA414658460E
:1054700002F084FA00287FF4CCAEDDE9313533AC9C
:10548000E7E700BFC0A20008D0A20008089BD90728
:105490003FF5EBAE0123072FCDE931752660636040
:1054A0007FF711AF0D9930AA584602F067FA00282D
:1054B0007FF4AFAEDDE931750DF1CC0803E7129B47
:1054C000012B7FF700AF112BDFF8849240F35B8351
:1054D000CDF824A01026CA46DDF8349005E008F186
:1054E0000808103C102C40F34B8301371035072F70
:1054F000C8E900A6CDE93175F1DD30AA4946584624
:1055000002F03CFA00287FF484AEDDE931750DF13C
:10551000CC08E6E70D9930AA584602F02FFA002889
:105520007FF477AE329D33ACFFF739BB08980F9903
:1055300010F0100051F8043B53D1089A12F04005C6
:105540004AD09BB202460F9101E50F9915F0100069
:1055500051F8043B0CD115F0400604D00F919BB2DA
:1055600002460121C1E415F400721CBFDBB23246D1
:105570000F910121B9E45B42089D62EB42022D20AC
:105580000121B3E4099B0C935CAE99E50D9930AA17
:10559000584602F0F3F900287FF43BAEDDE931759F
:1055A0000DF1CC0869E60D9930AA584602F0E6F9EB
:1055B00000287FF42EAEDDE931750DF1CC0869E6E7
:1055C000089BDB077FF5FBAA2DE50F939AF80030C7
:1055D000FFF7D4B95CAE73E5089A12F4007240F09C
:1055E00009840F91B3E41B9A9AF80030002A3FF423
:1055F000C5A91278002A3FF4C1A9089A42F4806232
:105600000892FFF7BBB90F92DA171146FFF7E3BB19
:10561000089BD80600F1AE82089B590600F1E4838E
:10562000089B9A0540F1A6820F9B0A9A1B681A7084
:1056300033E4DDE9140102460B46FBF707FC0028C2
:1056400040F03886109B612B00F04185412B00F023
:105650006685099B013300F01184109B23F0200321
:10566000472B00F0F1850E90DDE914120898002A0E
:1056700040F48079C0F2088500231A93DDE91423F1
:10568000CDE92223109B413B252B00F22A83DFE842
:1056900013F03B04280328032803FA03C504280356
:1056A00028032803280328032803280328032803A2
:1056B0002803280328032803280328032803280392
:1056C0002803280328032803280328032803280382
:1056D00028033B04280328032803FA03C504089D74
:1056E00010933DE4109324E410931A4B1893089BF5
:1056F00013F0200200F035810F9B073323F00703DE
:1057000019465A6851F8083B0F910898C1070BD504
:1057100053EA020108D010998DF8991040F0020167
:10572000089130218DF89810089921F480650221A4
:10573000FFF7DBBB1093084B1893D8E70F9B1B6850
:105740008DF80C31012306930C9343AEFFF7F9BAA1
:10575000C0A2000814A1000800A100080D9930AAF9
:10576000584602F00BF900287FF453AD329D33AC5C
:1057700066E4089B43F0200308930AF1010A9AF8B3
:105780000030FFF7FBB8089B43F4007308930AF15D
:10579000010A9AF80030FFF7F1B840215846FEF7A9
:1057A000B7FA0D9B18601861002800F02D860D9A3D
:1057B00040235361FFF7A6B8099B0E96062B31468E
:1057C00028BF0623099632460693B24E0F970C93D4
:1057D000169113911191FFF751BA102F319BDFF8F9
:1057E000B89240F30A8249462A46B1460D9D4FF0D1
:1057F00010080E4604E00834103F102F40F3F981E2
:1058000001331032072BC4E90068CDE93132F2DDF3
:1058100030AA2946584602F0B1F800287FF4F9ACC6
:10582000DDE9313233ACE7E7129BCDF840A006EB5F
:105830000309139BDDF86CA0DDF858801196002B4E
:1058400022462946099C0D9DCDF82490DDF88090D4
:1058500031DDB8F1000F40F33A8108F1FF3831989B
:105860001D9B013049440728C2E90039329131902B
:1058700000F386800832099B9AF800001F1B8742BC
:10588000A8BF0746002F0CDD3198013039440728A6
:10589000C2E900473291319000F353819AF8000039
:1058A0000832002FACBFC61B0646002E15DC044490
:1058B000139B002BCDDCB8F1000FCEDCDDE91163CA
:1058C0002046F318984228BF1846CDF86CA014461D
:1058D000DDF840A009900D468CE5102E31986E4BF6
:1058E00023DD0C94102734461E4604E0103C102C97
:1058F00002F1080216DD0130674B10310728C2E9BA
:105900000037CDE93101F1DD30AA2946584602F0D1
:1059100035F800287FF47DAC103C102CDDE9310116
:1059200033AAE8DC334626460C9C13600130314430
:105930000728CDE93101566000F3AE839AF80000E4
:1059400008320444B4E7179A19991544C4E90012BF
:10595000319A32950132072A319200F3CB83083411
:1059600051E508980F9910F0100051F8043B17D139
:10597000089A12F040050ED09BB202460F91C4E681
:1059800030AA2946584601F0F9FF00287FF441ACBF
:10599000329933AA6FE7089A12F4007240F02F820E
:1059A0000F91B2E60C94DFF8F4901B9CCDF820A088
:1059B00005F480674FF0000C5CAE4FF005080695CB
:1059C00005E00A2B72F1000234D353462A46991897
:1059D00041F10001A9FB010525F0030000EB950052
:1059E000091A581A4FF0CC3562F1000E05FB00F58C
:1059F000A0FB09A009FB0E550AF0010E0544AEFB01
:105A0000080E40184FEA5A0A303006F8010C4AEAEC
:105A1000C57A0CF1010C013E6D08002FD1D0217820
:105A20008C45CED1BCF1FF0FCBD00A2B72F1000216
:105A300080F032811B94DDF820A0069D0C9CCDF8EF
:105A400048C0FFF739BB319B154A2260013301354D
:105A50000122072B32953193626000F336810834BE
:105A6000002940F09C80089B129A03F00103134325
:105A70003FF4A5A8179B199A1D44C4E90023319B44
:105A800032950133072B319300F3EB8104F10802C7
:105A900096E000BF28A10008C0A20008CDCCCCCC65
:105AA00030A100080D991A9330AA584601F066FFFC
:105AB00000287FF4AEAB9DF89720329D1A9B33AC43
:105AC000FFF745B80129089D7FF4E6AA10E4139B6F
:105AD000013B0AF1FF3A1393C1E60D9930AA5846EB
:105AE00001F04CFF00287FF494AB329D33ACFFF7FC
:105AF00095BA0DF1B8080822002140462996FEF714
