:020000040800F2
:10000000008001203D1E0008451D0008471D000816
:10001000491D00084B1D00084D1D00080000000090
:100020000000000000000000000000004F1D00085C
:10003000511D000800000000531D0008551D000858
:100040008D1E00088D1E00088D1E00088D1E0008E4
:100050008D1E00088D1E00088D1E00088D1E0008D4
:100060008D1E00088D1E00088D1E00088D1E0008C4
:100070008D1E00088D1E00088D1E00088D1E0008B4
:100080008D1E00088D1E00088D1E00080000000057
:100090000000000000000000000000008D1E0008AD
:1000A0008D1E00088D1E00088D1E00088D1E000884
:1000B0008D1E00085D1D00088D1E00088D1E0008A5
:1000C0008D1E00088D1E00088D1E00088D1E000864
:1000D0008D1E00088D1E00086D1D00080000000028
:1000E0008D1E00088D1E00088D1E000800000000F7
:1000F0000000000000000000000000008D1E00084D
:10010000000000008D1E00088D1E00088D1E0008D6
:1001100000000000000000000000000000000000DF
:100120008D1E00088D1E00088D1E00088D1E000803
:100130008D1E00080000000000000000000000000C
:100140000000000000000000000000008D1E0008FC
:100150008D1E00088D1E00088D1E00088D1E0008D3
:100160008D1E00088D1E0008000000000000000029
:10017000000000000000000000000000000000007F
:10018000000000008D1E00080000000000000000BC
:040190008D1E0008B8
:1001C0000348044B834202D0034B03B118477047E6
:1001D000C0060020C0060020000000000548064BB5
:1001E0001B1AD90F01EBA301491002D0034B03B135
:1001F00018477047C0060020C0060020000000001D
:1002000010B5064C237843B9FFF7DAFF044B13B15E
:100210000448AFF300800123237010BDC006002006
:10022000000000009092000808B5044B1BB104497F
:100230000448AFF30080BDE80840CFE700000000AD
:10024000C40600209092000881F0004102E000BF47
:1002500083F0004330B54FEA41044FEA430594EA86
:10026000050F08BF90EA020F1FBF54EA000C55EAC1
:10027000020C7FEA645C7FEA655C00F0E2804FEA92
:100280005454D4EB5555B8BF6D420CDD2C4480EA74
:10029000020281EA030382EA000083EA010180EAA4
:1002A000020281EA0303362D88BF30BD11F0004FF2
:1002B0004FEA01314FF4801C4CEA113102D0404228
:1002C00061EB410113F0004F4FEA03334CEA133363
:1002D00002D0524263EB430394EA050F00F0A7807B
:1002E000A4F10104D5F1200E0DDB02FA0EFC22FA76
:1002F00005F2801841F1000103FA0EF2801843FA6A
:1003000005F359410EE0A5F120050EF1200E012A5A
:1003100003FA0EFC28BF4CF0020C43FA05F3C01898
:1003200051EBE37101F0004507D54FF0000EDCF111
:10033000000C7EEB00006EEB0101B1F5801F1BD3BA
:10034000B1F5001F0CD349085FEA30004FEA3C0CBE
:1003500004F101044FEA445212F5800F80F09A80B4
:10036000BCF1004F08BF5FEA500C50F1000041EBB8
:10037000045141EA050130BD5FEA4C0C404141EBBC
:100380000101013C28BFB1F5801FE9D291F0000FB7
:1003900004BF01460020B1FA81F308BF2033A3F166
:1003A0000B03B3F120020CDA0C3208DD02F1140C5D
:1003B000C2F10C0201FA0CF021FA02F10CE002F198
:1003C0001402D8BFC2F1200C01FA02F120FA0CFC91
:1003D000DCBF41EA0C019040E41AA2BF01EB0451DA
:1003E000294330BD6FEA04041F3C1CDA0C340EDCD8
:1003F00004F11404C4F1200220FA04F001FA02F31B
:1004000040EA030021FA04F345EA030130BDC4F1D8
:100410000C04C4F1200220FA02F001FA04F340EACD
:100420000300294630BD21FA04F0294630BD94F07E
:10043000000F83F4801306BF81F480110134013D65
:100440004EE77FEA645C18BF7FEA655C29D094EAD6
:10045000050F08BF90EA020F05D054EA000C04BF54
:100460001946104630BD91EA030F1EBF002100203F
:1004700030BD5FEA545C05D14000494128BF41F0DE
:10048000004130BD14F580043CBF01F5801130BD42
:1004900001F0004545F0FE4141F470014FF00000CD
:1004A00030BD7FEA645C1ABF194610467FEA655C7E
:1004B0001CBF0B46024650EA013406BF52EA033520
:1004C00091EA030F41F4002130BD00BF90F0000F0E
:1004D00004BF0021704730B54FF4806404F132044A
:1004E0004FF000054FF0000150E700BF90F0000F03
:1004F00004BF0021704730B54FF4806404F132042A
:1005000010F0004548BF40424FF000013EE700BFF9
:1005100042004FEAE2014FEA31014FEA02701FBF89
:1005200012F07F4393F07F4F81F06051704732F0BB
:100530007F4208BF704793F07F4F04BF41F4002112
:10054000704730B54FF4607401F0004521F0004170
:100550001CE700BF50EA010208BF704730B54FF0FA
:1005600000050AE050EA010208BF704730B511F0FB
:10057000004502D5404261EB41014FF4806404F133
:1005800032045FEA915C3FF4D8AE4FF003025FEAB9
:10059000DC0C18BF03325FEADC0C18BF033202EB3D
:1005A000DC02C2F1200300FA03FC20FA02F001FA97
:1005B00003FE40EA0E0021FA02F11444BDE600BF3A
:1005C00070B54FF0FF0C4CF4E06C1CEA11541DBFE9
:1005D0001CEA135594EA0C0F95EA0C0F00F0DEF8B4
:1005E0002C4481EA030621EA4C5123EA4C5350EA99
:1005F000013518BF52EA033541F4801143F48013EA
:1006000038D0A0FB02CE4FF00005E1FB02E506F07A
:100610000042E0FB03E54FF00006E1FB03569CF0CF
:10062000000F18BF4EF0010EA4F1FF04B6F5007FD5
:1006300064F5407404D25FEA4E0E6D4146EB060647
:1006400042EAC62141EA55514FEAC52040EA5E50D0
:100650004FEACE2EB4F1FD0C88BFBCF5E06F1ED87A
:10066000BEF1004F08BF5FEA500E50F1000041EBB1
:10067000045170BD06F0004646EA010140EA02005E
:1006800081EA0301B4EB5C04C2BFD4EB0C0541EA80
:10069000045170BD41F480114FF0000E013C00F395
:1006A000AB8014F1360FDEBF002001F0004170BDB9
:1006B000C4F10004203C35DA0C341BDC04F11404D2
:1006C000C4F1200500FA05F320FA04F001FA05F25E
:1006D00040EA020001F0004221F0004110EBD3702B
:1006E00021FA04F642EB06015EEA430E08BF20EA57
:1006F000D37070BDC4F10C04C4F1200500FA04F3FA
:1007000020FA05F001FA04F240EA020001F000418B
:1007100010EBD37041F100015EEA430E08BF20EAFE
:10072000D37070BDC4F1200500FA05F24EEA020E46
:1007300020FA04F301FA05F243EA020321FA04F075
:1007400001F0004121FA04F220EA020000EBD3702C
:100750005EEA430E08BF20EAD37070BD94F0000F2C
:100760000FD101F00046400041EB010111F4801F60
:1007700008BF013CF7D041EA060195F0000F18BF11
:10078000704703F00046520043EB030313F4801F4D
:1007900008BF013DF7D043EA0603704794EA0C0F07
:1007A0000CEA135518BF95EA0C0F0CD050EA41061D
:1007B00018BF52EA4306D1D181EA030101F000419A
:1007C0004FF0000070BD50EA410606BF10461946C2
:1007D00052EA430619D094EA0C0F02D150EA0136CE
:1007E00013D195EA0C0F05D152EA03361CBF10460F
:1007F00019460AD181EA030101F0004141F0FE41AE
:1008000041F470014FF0000070BD41F0FE4141F431
:10081000780170BD70B54FF0FF0C4CF4E06C1CEA31
:1008200011541DBF1CEA135594EA0C0F95EA0C0FE6
:1008300000F0A7F8A4EB050481EA030E52EA0335A1
:100840004FEA013100F088804FEA03334FF08055C2
:1008500045EA131343EA12634FEA022245EA1115EF
:1008600045EA10654FEA00260EF000419D4208BFA0
:10087000964244F1FD0404F5407402D25B084FEA4D
:100880003202B61A65EB03055B084FEA32024FF4F9
:1008900080104FF4002CB6EB020E75EB030E22BF56
:1008A000B61A754640EA0C005B084FEA3202B6EB16
:1008B000020E75EB030E22BFB61A754640EA5C00C5
:1008C0005B084FEA3202B6EB020E75EB030E22BF55
:1008D000B61A754640EA9C005B084FEA3202B6EB56
:1008E000020E75EB030E22BFB61A754640EADC0015
:1008F00055EA060E18D04FEA051545EA16754FEA77
:1009000006164FEAC30343EA52734FEAC2025FEA94
:100910001C1CC0D111F4801F0BD141EA00014FF023
:1009200000004FF0004CB6E711F4801F04BF0143F4
:100930000020B4F1FD0C88BFBCF5E06F3FF6AFAE10
:10094000B5EB030C04BFB6EB020C5FEA500C50F1A0
:10095000000041EB045170BD0EF0004E4EEA113123
:1009600014EB5C04C2BFD4EB0C0541EA045170BD2A
:1009700041F480114FF0000E013C90E645EA060E6E
:100980008DE60CEA135594EA0C0F08BF95EA0C0F9C
:100990003FF43BAF94EA0C0F0AD150EA01347FF4E4
:1009A00034AF95EA0C0F7FF425AF104619462CE7BB
:1009B00095EA0C0F06D152EA03353FF4FDAE10461E
:1009C000194622E750EA410618BF52EA43067FF46F
:1009D000C5AE50EA41047FF40DAF52EA43057FF4FF
:1009E000EBAE12E74FF0FF3C06E000BF4FF0010C0A
:1009F00002E000BF4FF0010C4DF804CD4FEA410C6E
:100A00007FEA6C5C4FEA430C18BF7FEA6C5C1BD03A
:100A100001B050EA410C0CBF52EA430C91EA030FBB
:100A200002BF90EA020F0020704710F1000F91EA18
:100A3000030F58BF994208BF90422CBFD8176FEAE6
:100A4000E37040F0010070474FEA410C7FEA6C5CB4
:100A500002D150EA013C07D14FEA430C7FEA6C5CBB
:100A6000D6D152EA033CD3D05DF8040B704700BFE7
:100A70008446104662468C461946634600E000BF35
:100A800001B5FFF7B7FF002848BF10F1000F01BD07
:100A90004DF808EDFFF7F4FF0CBF012000205DF8D2
:100AA00008FB00BF4DF808EDFFF7EAFF34BF012057
:100AB00000205DF808FB00BF4DF808EDFFF7E0FFF0
:100AC00094BF012000205DF808FB00BF4DF808ED41
:100AD000FFF7CEFF94BF012000205DF808FB00BFA8
:100AE0004DF808EDFFF7C4FF34BF012000205DF88A
:100AF00008FB00BF4FEA410212F5001215D211D5D2
:100B00006FF47873B3EB625212D94FEAC12343F00A
:100B1000004343EA505311F0004F23FA02F018BF8C
:100B2000404270474FF00000704750EA013005D155
:100B300011F0004008BF6FF0004070474FF0000018
:100B4000704700BF7BB972B90029BEBF00204FF0CB
:100B5000004106E008BF00281CBF6FF000414FF0C5
:100B6000FF3000F0B5B9ADF1080C6DE904CE0029F5
:100B700009DB002B1ADB00F04DF8DDF804E0DDE9BD
:100B8000022304B07047404261EB4101002B1BDBA4
:100B900000F040F8DDF804E0DDE9022304B0404253
:100BA00061EB4101524263EB43037047524263EBF6
:100BB000430300F02FF8DDF804E0DDE9022304B080
:100BC000404261EB41017047524263EB430300F046
:100BD00021F8DDF804E0DDE9022304B0524263EBC2
:100BE0004303704753B94AB9002908BF00281CBF06
:100BF0004FF0FF314FF0FF3000F06AB9ADF1080C53
:100C00006DE904CE00F006F8DDF804E0DDE902232A
:100C100004B070472DE9F047089D0E4604460F4684
:100C2000002B4AD194468C45B2FA82F260D942B187
:100C3000C2F12003974020FA03F30CFA02FC1F4391
:100C400094404FEA1C4E1FFA8CF6B7FBFEF1230CC2
:100C50000EFB117743EA074301FB06F098420AD9DD
:100C60001CEB030301F1FF3780F01581984240F23D
:100C70001281023963441B1AA4B2B3FBFEF00EFBCF
:100C8000103344EA034400FB06F6A6420AD91CEBE3
:100C9000040400F1FF3380F00081A64240F2FD80A1
:100CA0006444023840EA0140A41B00211DB1D44035
:100CB0000023C5E90043BDE8F0878B4205D90DB19B
:100CC000C5E9000100210846F5E7B3FA83F10029E0
:100CD00046D1B34202D3824200F2F580841A66EB19
:100CE000030201201746002DE5D0C5E90047E2E7E1
:100CF000002A40F09380A1EB0C034FEA1C471FFA37
:100D00008CFE0121B3FBF7F607FB1630230C43EAF8
:100D100000430EFB06F0984208D91CEB030306F1D2
:100D2000FF3802D2984200F2D08046461B1AA4B285
:100D3000B3FBF7F007FB103344EA03440EFB00FE5D
:100D4000A64508D91CEB040400F1FF3302D2A645E6
:100D500000F2B6801846A4EB0E0440EA0640A5E770
:100D6000C1F120078B4022FA07FC4CEA030C06FA7B
:100D700001FE20FA07F426FA07F344EA0E0400FA0B
:100D800001F84FEA1C404FEA1449B3FBF0FE1FFA8A
:100D90008CF600FB1E3349EA03430EFB06F9994526
:100DA00002FA01F20BD91CEB03030EF1FF3A80F0BB
:100DB0008580994540F28280AEF1020E6344A3EB38
:100DC0000909A4B2B9FBF0F300FB139944EA094402
:100DD00003FB06F6A64208D91CEB040403F1FF301E
:100DE00068D2A64266D9023B644443EA0E40A41B83
:100DF000A0FB02E6B4427346B14652D34FD05DB178
:100E0000B8EB030264EB090404FA07F722FA01F3D2
:100E10001F43CC40C5E9007400214CE7C2F120011A
:100E200020FA01F30CFA02FC26FA01F19640334352
:100E30004FEA1C471FFA8CFEB1FBF7F007FB1016B8
:100E4000190C41EA064100FB0EF68E4204FA02F448
:100E500008D91CEB010100F1FF382DD28E422BD9AD
:100E600002386144891B9BB2B1FBF7F607FB1611F0
:100E700043EA014306FB0EF1994208D91CEB030338
:100E800006F1FF3814D2994212D9023E63445B1A2C
:100E900046EA004136E73946EDE6184602E7F045F6
:100EA000ADD2BEEB020366EB0C060138B146A6E7F5
:100EB0004646ECE7034698E74046D3E7D6467EE74A
:100EC0006444023847E708460DE7023E63442DE7D5
:100ED000704700BF0000000000000000000000009C
:100EE00001F0FF01102A2BDB10F0070F08D010F8DB
:100EF000013B013A8B422DD010F0070F42B3F6D1DF
:100F0000F0B441EA012141EA014122F007047FF0F7
:100F100000070023F0E80256083C85EA010586EA4E
:100F2000010685FA47F5A3FA87F586FA47F6A5FA8A
:100F300087F68EB9EED1F0BC01F0FF0102F0070296
:100F400032B110F8013B013A83EA010313B1F8D141
:100F50000020704701387047002D06BF3546033822
:100F6000073815F0010F07D1013015F4807F02BF5B
:100F7000013015F4C03F0130F0BC0138704700BFAC
:100F800030B490F800F020F007016FF0000C10F082
:100F9000070491F820F040F048804FF000046FF013
:100FA0000700D1E9002391F840F000F1080082FA2F
:100FB0004CF2A4FA8CF283FA4CF3A2FA8CF34BBBFA
:100FC000D1E9022382FA4CF200F10800A4FA8CF273
:100FD00083FA4CF3A2FA8CF3E3B9D1E9042382FA41
:100FE0004CF200F10800A4FA8CF283FA4CF3A2FA56
:100FF0008CF37BB9D1E9062301F1200182FA4CF28E
:1010000000F10800A4FA8CF283FA4CF3A2FA8CF3F4
:10101000002BC6D0002A04BF04301A4612BAB2FA16
:1010200082F200EBD20030BC7047D1E9002304F01B
:101030000305C4F100004FEAC50514F0040F91F850
:1010400040F00CFA05F562EA05021CBF63EA0503ED
:1010500062464FF00004AAE7844641EA000313F019
:1010600003036DD1403A41D351F8043B40F8043BAF
:1010700051F8043B40F8043B51F8043B40F8043B72
:1010800051F8043B40F8043B51F8043B40F8043B62
:1010900051F8043B40F8043B51F8043B40F8043B52
:1010A00051F8043B40F8043B51F8043B40F8043B42
:1010B00051F8043B40F8043B51F8043B40F8043B32
:1010C00051F8043B40F8043B51F8043B40F8043B22
:1010D00051F8043B40F8043B51F8043B40F8043B12
:1010E00051F8043B40F8043B403ABDD2303211D3B2
:1010F00051F8043B40F8043B51F8043B40F8043BF2
:1011000051F8043B40F8043B51F8043B40F8043BE1
:10111000103AEDD20C3205D351F8043B40F8043BB1
:10112000043AF9D2043208D0D2071CBF11F8013BAF
:1011300000F8013B01D30B8803806046704700BF75
:10114000082A13D38B078DD010F003038AD0C3F184
:101150000403D21ADB071CBF11F8013B00F8013B66
:1011600080D331F8023B20F8023B7BE7043AD9D325
:10117000013A11F8013B00F8013BF9D20B780370FA
:101180004B7843708B788370604670474FEA410C10
:101190007FEA6C5C02D150EA013C0AD14FEA430C71
:1011A0007FEA6C5C02D152EA033C02D14FF00000AE
:1011B00070474FF00100704700F17843B3F5804F5E
:1011C00029D3A3F58043B3F5804F26D300F17843AC
:1011D000A3F50043B3F5804F21D300F17843A3F585
:1011E0004043B3F5804F1CD300F1774303F57F03F1
:1011F000B3F5803F17D300F1774303F57E03B3F5D2
:10120000003F12D300F1774000F57C00B0F5003FBD
:101210000DD307207047002070470120704702203F
:101220007047032070470420704705207047062050
:101230007047F8B507460E46154601F007F800243A
:1012400006E00020325D0346E11901F051F8013457
:10125000AC42F6D301F012F8F8BD002304E013F815
:1012600000C001F803C001339342F8D3704770B552
:1012700086B004460E4600F0E9FF2046FFF79CFFCB
:1012800005463444601EFFF797FF00230093019347
:10129000022305930395401B01300490694601A881
:1012A00001F0CCF800F0EAFF06B070BD0246002065
:1012B00000E00130135C002BFBD1704710B50146F4
:1012C000044C10222068FFF7B4FF2368103323601A
:1012D00010BD00BF0000002070B506460D4600247A
:1012E0000AE02001102206EB041100F1006000F575
:1012F000C020FFF7B2FF0134AC42F2D370BD000052
:10130000024B1878024B03EB00107047DD060020FB
:10131000FFFF050808B5FFF7F3FF03490144034841
:10132000FFF7A5FF08BD00BF0100FAF7000006089F
:101330004FF0804300225A624FF080435B6A834241
:10134000FAD3704710B5154C00220121204601F058
:10135000AEF90220FFF7ECFF01221146204601F012
:10136000A6F90A20FFF7E4FF00220121204601F040
:101370009EF90221094801F093F90028F9D00024D0
:1013800003E001340120FFF7D3FF0221034801F0FD
:1013900087F90128F5D0A0B210BD00BF00000240BF
:1013A00008B54FF47A7000F0C5FDFFF7CBFFFFF7EB
:1013B0009DF805A3D3E90023FFF702F90022044BAF
:1013C000FFF7FEF808BD00BF9CC420B07268A13FC3
:1013D0000000E03F2DE9F0479EB01C683A4B9C426C
:1013E00002D01EB0BDE8F08707460E461546374BC3
:1013F0001B789DF89820934203D20133334A13702F
:10140000EFE7FFF7CDFF8046894600220CA9304662
:1014100001F071FF002207A9304601F092FF9DF80C
:1014200030409DF831609DF832A00A21284600F036
:1014300056F9CDE90401CDE90289CDF800A0334683
:101440002246234911A803F07DF911A8FFF72EFFCA
:101450004FF0FF3382B211A9384602F04EFBCDE9BE
:1014600008890A21284600F03AF9FFF743FB0A9061
:101470009DF832308DF82C309DF831308DF82D30BC
:101480009DF830308DF82E300A21284600F027F9DB
:10149000104B1C68FFF72EFBA060C4E900899DF883
:1014A000323023739DF8313063739DF83030A3736D
:1014B00008A8FFF703FF084A137801331370034BA2
:1014C00000221A708DE700BF00040040DC060020F7
:1014D000A8920008E0060020DD0600202DE97043F8
:1014E000102002F071FD044600220023C0E9002311
:1014F0000025856000E001350C4B1B78AB4212DD06
:101500000B4B1E68D6E90089D4E9002340464946C2
:10151000FFF7E6FA08B1C4E90089B368A26893420C
:10152000E9DDA360E7E72046BDE87083DD06002023
:10153000E00600202DE97043102002F045FD04462E
:1015400000220023C0E900230025856000E001356A
:101550000C4B1B78AB4212DD0B4B1E68D6E90089A1
:10156000D4E9002340464946FFF79CFA08B1C4E994
:101570000089B368A2689342E9DAA360E7E72046EE
:10158000BDE87083DD060020E006002030B58BB09A
:101590000446012207A902F0FEFC9DF81C30732BC3
:1015A00005D06D2B26D0632B47D00BB030BD244D1A
:1015B000244B19782868FFF78FFE2868FFF78EFF05
:1015C000054683680293D0E90023CDE90023C26871
:1015D0001D4904A803F0B6F804A8FFF767FE4FF012
:1015E000FF3382B204A9204602F087FA284602F0AF
:1015F000F3FCDAE7124D134B19782868FFF76CFEFD
:101600002868FFF797FF054683680293D0E9002317
:10161000CDE90023C2680C4904A803F093F804A89C
:10162000FFF744FE4FF0FF3382B204A9204602F0D8
:1016300064FA284602F0D0FCB7E7FFF76BFEB4E788
:10164000E0060020DD060020A892000838B5844698
:101650001846BDF81030CCF80010ACF80420CCF8D7
:101660000800ACF80C300022CCF810200024034D08
:10167000CCE90645194601F01AF838BD0000F03FE4
:1016800070B50446A188206801F00AF80128F9D055
:1016900000252E4600E00135172D12DC0122A1891C
:1016A000A06801F004F876000022A189A06800F08B
:1016B000FEFFA188206800F0F3FF0128EBD101367E
:1016C000E9E70122A189A06800F0F1FF86F4000695
:1016D0000022A189A06800F0EAFF304670BD2DE924
:1016E000F04180460F4600252C462E4606E0404637
:1016F000FFF7C6FF041946EBE0760135BD42F6DB85
:101700003A46FB1720463146FFF71CFAD8F810304E
:10171000D8E90645C01AFEF7E9FE22462B46FFF738
:1017200079F8BDE8F081000030B589B00024039459
:1017300004940594069407940194174B1A6B42F095
:1017400001021A631A6B02F001020192019A0294DB
:101750001A6B42F002021A631B6B03F0020302933E
:10176000029B0E4D22462121284600F0A0FF212396
:101770000393012304930594069403A9284600F0DB
:10178000A7FE422303930494059403A9284600F07E
:101790009FFE09B030BD00BF00380240000002408B
:1017A00038B5074D074C4FF0FF3314222946204629
:1017B00002F0A3F914222946204602F0ECFB38BDC2
:1017C000E40600201807002000B583B03C230093F6
:1017D000044B054A05490648FFF7FCFD03B05DF8D8
:1017E00004FB00BF60070020F8060020F00700207F
:1017F0001807002072B6FEE700B587B000230293F9
:101800000393049305930093019314484FF080428F
:1018100002602922426083604FF6FF72C26003615A
:10182000836101F019FF90B94FF48053029302A92C
:101830000A4801F049FF60B900230093019369460B
:10184000064801F0C1FF30B907B05DF804FBFFF7AF
:10185000D1FFFFF7CFFFFFF7CDFF00BFA8070020A4
:1018600008B50A480A4B03604FF4E1334360002394
:101870008360C36003610C2242618361C36102F033
:101880000CF900B908BDFFF7B5FF00BF180700202D
:101890000044004000B587B00023019302930393F6
:1018A0000493059300931A481A4A026043607F220A
:1018B0008260FF22C26003614361836101F00AFC20
:1018C000F8B900228DF804208DF805208DF8062047
:1018D0000492059201A90E4801F056FC98B9012323
:1018E0008DF800308DF801308DF8023000228DF82F
:1018F00003206946064801F0A7FC30B907B05DF83F
:1019000004FBFFF777FFFFF775FFFFF773FF00BFDB
:10191000F00700200028004008B50A480A4B036081
:101920000A4B436000238360C3604FF4804202612E
:1019300043618361C361036200F0C0FE00B908BD6A
:10194000FFF758FF1008002000580040801A0600DA
:1019500000B587B00023029303930493059300938B
:1019600001931348134A02602A22426083604FF4B5
:101970007A72C2600361836101F06EFE90B94FF428
:101980008053029302A90A4801F09EFE60B9002329
:10199000009301936946064801F016FF30B907B07D
:1019A0005DF804FBFFF726FFFFF724FFFFF722FF98
:1019B000600700200004004000B595B030220021EF
:1019C00008A802F029FF00230393049305930693CC
:1019D00007930193214A116C41F080511164126CFC
:1019E00002F080520192019A02931D490A6822F482
:1019F000404242F400420A600A6802F44042029205
:101A0000029A0A22089201220B9210210C910D9247
:101A100002220E920F9308231093542311931292D3
:101A20000423139308A800F027FF90B90F23039312
:101A300002230493802305934FF4805306930023DD
:101A40000793012103A801F067F920B915B05DF8EB
:101A500004FBFFF7CFFEFFF7CDFE00BF00380240CA
:101A6000007000400000000000B589B000F036FAB8
:101A7000FFF7A2FFFFF758FEFFF7BEFEFFF7F0FEED
:101A8000FFF708FFFFF748FFFFF762FF284801F064
:101A9000A3FC284801F0A0FC14222749274802F0A3
:101AA0007AFA002203920492059206920792029219
:101AB0000A238DF80C308DF80D308DF80E3003A907
:101AC0001F4801F061FB08B1FFF794FE03238DF876
:101AD000083001228DF8092010238DF80A302123C7
:101AE0008DF80B3002A9164801F0AEFB08B1FFF7E4
:101AF00081FE1449144C202300930B4640222046BB
:101B0000FFF7A4FD08A3D3E90023C4E906230F4B84
:101B100023614FF0FF3314220749084801F0EDFF1D
:101B20000648FFF733FDFBE7CDCCCCCCCC4C4CC00A
:101B3000A807002060070020E40600201807002006
:101B4000F007002000000240F80600205BE582005C
:101B500082B0002100910B4B5A6C42F480425A64CF
:101B60005A6C02F480420092009A01911A6C42F081
:101B700080521A641B6C03F080530193019B02B0E6
:101B8000704700BF003802402DE9F04188B00023C3
:101B90000393049305930693079302681C4B9A42A0
:101BA00002D008B0BDE8F08100250195194C236BE7
:101BB00043F002032363236B03F002030193019BB1
:101BC0004FF4806303934FF01208CDF81080032781
:101BD000069704230793104E03A9304600F078FCC3
:101BE00008230393CDF810800595069709230793E2
:101BF00003A9304600F06CFC0295236C43F480038B
:101C00002364236C03F480030293029BC9E700BFA3
:101C100000580040003802400004024000B587B080
:101C200000230193029303930493059302680B4BE3
:101C30009A4202D007B05DF804FB022301934FF4EF
:101C40000073049301A801F03DF920B9044B01226F
:101C5000C3F83C2EEEE7FFF7CDFDF7E70028004084
:101C60000000474200B583B00368B3F1804F05D050
:101C7000134A93420FD003B05DF804FB0023009396
:101C8000104B1A6C42F001021A641B6C03F0010342
:101C90000093009BEFE7002101910A4B1A6C42F080
:101CA00002021A641B6C03F002030193019B0A46B3
:101CB0001D2000F0A7F91D2000F0B4F9DBE700BFFC
:101CC000000400400038024010B588B000230393A0
:101CD00004930593069307930268184B9A4201D028
:101CE00008B010BD0024019403F5FA331A6C42F4D5
:101CF00000321A641A6C02F400320192019A0294C2
:101D00001A6B42F001021A631B6B03F0010302938A
:101D1000029B0C23039302230493032306930723BC
:101D2000079303A9064800F0D3FB2246214626204C
:101D300000F068F9262000F075F9D1E70044004072
:101D400000000240FEE7FEE7FEE7FEE7FEE7704721
:101D50007047704708B500F0DBF808BD08B50248C9
:101D600001F074FB08BD00BF6007002008B5024801
:101D700001F0B4FF08BD00BF180700200120704724
:101D800008B502F001FE162303604FF0FF3008BDD6
:101D900008B54FF0FF31FFF7F3FFFEE770B50C46D3
:101DA0001646002506E0AFF30080214601F8010B3E
:101DB00001350C46B542F6DB304670BD70B50C46B9
:101DC0001646002504E014F8010BAFF3008001353E
:101DD000B542F8DB304670BD4FF0FF3070474FF42E
:101DE00000534B600020704701207047002070476F
:101DF00010B503460C4A0D490D48006840B10C4827
:101E000000680344521A934206D8094A136010BD71
:101E10000748084C0460F2E702F0B6FD0C230360AB
:101E20004FF0FF30F3E700BF008001200004000006
:101E300064080020A00B002070470000DFF834D0B9
:101E4000FFF7FAFF0C480D490D4A002302E0D45871
:101E5000C4500433C4188C42F9D30A4A0A4C0023F4
:101E600001E013600432A242FBD302F093FDFFF7BE
:101E7000FBFD70470080012000000020C00600200C
:101E800058960008C0060020A00B0020FEE70000C6
:101E900010B504460E4B1A784FF47A73B3FBF2F385
:101EA0000C4A1068B0FBF3F000F0C0F868B90F2CD2
:101EB00001D901200AE0002221464FF0FF3000F056
:101EC000A1F8054B1C60002000E0012010BD00BF00
:101ED00008000020040000200C00002008B50B4B77
:101EE0001A6842F400721A601A6842F480621A603A
:101EF0001A6842F480721A60032000F071F80F2013
:101F0000FFF7C6FFFFF724FE002008BD003C02409B
:101F1000034A1168034B1B780B441360704700BFE2
:101F20006808002008000020014B1868704700BFB7
:101F30006808002038B50446FFF7F6FF0546B4F1FF
:101F4000FF3F02D0044B1B781C44FFF7EDFF401B02
:101F5000A042FAD338BD00BF08000020002807DBEC
:101F600000F01F02400901239340024A42F820304A
:101F7000704700BF00E100E0002808DB0901C9B29A
:101F800000F1604000F5614080F80013704700F0F8
:101F90000F000901C9B2014B1954704714ED00E05C
:101FA00000B500F00700C0F1070CBCF1040F28BF1A
:101FB0004FF0040C031D062B0FD9C31E4FF0FF3E3C
:101FC0000EFA0CF021EA000199400EFA03FE22EA13
:101FD0000E0241EA02005DF804FB0023EEE7000078
:101FE000074AD36823F4E0631B041B0C000200F4CF
:101FF000E060034343F0BF6343F40033D3607047B2
:1020000000ED00E010B50446054BD868C0F302208F
:10201000FFF7C6FF01462046FFF7AEFF10BD00BF29
:1020200000ED00E008B5FFF799FF08BD0138B0F1F9
:10203000807F0BD24FF0E0235861054AF02182F8EF
:1020400023100020986107221A6170470120704711
:1020500000ED00E070B50446866DFFF765FF94F86B
:102060003530DBB2022B06D080236365002384F871
:102070003430012070BD05462268136823F0160332
:1020800013602268536923F080035361236CE3B12A
:102090002268136823F0080313602268136823F092
:1020A0000103136023681B6813F0010F11D0FFF7C1
:1020B0003BFF431B052BF5D920236365032084F8E0
:1020C0003500002384F83430D4E7A36C002BDFD133
:1020D000E3E7E26D3F239340B360012384F835309A
:1020E000002084F83400C5E790F83530DBB2022BCD
:1020F00003D08023436501207047052380F83530E5
:102100000268136823F00103136000207047000089
:1021100010B409490C6924F440740C610C6944F44E
:1021200040740C610C6944F001040C610260BFF35F
:102130006F8F436010BC7047003C0240074B1A6928
:1021400022F440721A611A6942F400721A611A6923
:1021500042F001021A610160704700BF003C02407A
:10216000074B1A6922F440721A611A6942F48072AC
:102170001A611A6942F001021A610180704700BFBA
:10218000003C0240064B1A6922F440721A611A6937
:102190001A611A6942F001021A610170704700BFAA
:1021A000003C0240274BDB6813F0100F07D0264A93
:1021B000D36943F01003D361224B1022DA60214B24
:1021C000DB6813F0200F07D01F4AD36943F00803E0
:1021D000D3611C4B2022DA601A4BDB6813F0400FEE
:1021E00007D0194AD36943F00403D361154B402249
:1021F000DA60144BDB6813F0800F07D0124AD36902
:1022000043F00203D3610F4B8022DA600D4BDB6891
:1022100013F4807F08D00C4AD36943F00103D361E3
:10222000084B4FF48072DA60064BDB6813F0020F44
:1022300007D0054AD36943F02003D361014B022242
:10224000DA607047003C02406C080020094B1B69B3
:10225000002B01DB00207047064B074A5A6002F151
:1022600088325A601B69002B01DB00207047012077
:10227000704700BF003C024023016745034A1369D1
:1022800043F0004313610020704700BF003C024050
:1022900038B50446144B0022DA61FFF745FE0546C7
:1022A000124BDB6813F4803F0AD0B4F1FF3FF7D044
:1022B00024B1FFF739FE401BA042F1D903200DE005
:1022C0000A4BDB6813F0010F02D0084B0122DA60E1
:1022D000064BDB6813F4F97F01D1002038BDFFF70E
:1022E00061FF0120FAE700BF6C080020003C0240BB
:1022F000F8B516461B4A127E012A30D004460D4618
:102300001F46184B01221A764CF25030FFF7C0FFDF
:1023100090B9ACB1012C18D0022C1BD032463B46F0
:102320002846FFF7F5FE4CF25030FFF7B1FF0E4A9A
:10233000136923F0010313610A4B00221A76F8BDDA
:10234000F1B22846FFF71EFFEDE7B1B22846FFF7CE
:1023500007FFE8E731462846FFF7F0FEE3E70220F3
:10236000EDE700BF6C080020003C0240074B1A69F3
:1023700022F440721A611A6942F004021A611A6961
:1023800042EA002242F480321A617047003C024067
:10239000012905D0022906D039B14FF4407104E07B
:1023A0004FF4807101E04FF400710B4B1A6922F475
:1023B00040721A611A690A431A611A6922F0F80216
:1023C0001A611A6942EAC00040F0020018611A69F5
:1023D00042F480321A617047003C0240164B1B6881
:1023E00013F4007F10D0144B1A6822F400721A60A4
:1023F0001A6842F400621A601A6822F400621A60D5
:102400001A6842F400721A600B4B1B6813F4806F59
:1024100010D0094B1A6822F480621A601A6842F4DC
:1024200080521A601A6822F480521A601A6842F4C4
:1024300080621A60704700BF003C0240F8B5224B32
:102440001B7E012B3ED004460E461F4B01221A76FE
:102450004CF25030FFF71CFF074670BB4FF0FF33C4
:1024600033602368012B16D0A568E368A268134483
:10247000AB4220D9217C2846FFF78AFF4CF250302E
:10248000FFF706FF114A136923F0FA0313610746A9
:1024900080B90135E9E76168207CFFF767FF4CF2FE
:1024A0005030FFF7F5FE0746084A136923F004038E
:1024B000136100E03560FFF791FF034B00221A76AD
:1024C0003846F8BD0227FBE76C080020003C0240BC
:1024D00000230F2B00F2DA8030B583B068E0856806
:1024E0004FEA430E032404FA0EF425EA0405CC68EF
:1024F00004FA0EF42C438460446824EA02044A6817
:10250000C2F300129A40224342605FE0DC080834C4
:1025100050F8242003F00705AD004FF00F0E0EFA1F
:1025200005FE22EA0E0E0A69AA4042EA0E0240F8AF
:1025300024205FE0042200E0002202FA0EF22A4387
:102540000234534D45F82420524A94686FEA0C0235
:1025500024EA0C05D1F804E01EF4801F01D04CEAF7
:1025600004054C4CA560E46802EA0405D1F804E0D7
:102570001EF4001F01D04CEA0405464CE560646877
:1025800002EA0405D1F804E01EF4003F01D04CEA51
:102590000405404C6560246822404D6815F4803F76
:1025A00001D04CEA04023B4C226001330F2B6BD864
:1025B00001229A400C6804EA020C32EA0404F4D1C5
:1025C0004C6804F00304013C012C88D94A6802F0ED
:1025D0000302032A09D0C4685D000322AA4024EA4A
:1025E00002048A68AA402243C2604A6802F00302D9
:1025F000022A8BD004684FEA430E032202FA0EF23D
:1026000024EA02044A6802F0030202FA0EF22243AC
:1026100002604A6812F4403FC7D0002201921E4A6D
:10262000546C44F480445464526C02F4804201922D
:10263000019A9C08A51C164A52F8255003F0030E77
:102640004FEA8E0E0F2202FA0EF225EA0205134A15
:1026500090423FF471AF02F5806290420ED002F5D5
:10266000806290420CD002F5806290420AD002F55E
:10267000806290423FF45EAF07225EE701225CE792
:1026800002225AE7032258E703B030BD704700BF6B
:1026900000380140003C0140003802400000024088
:1026A0000369194201D001207047002070470AB128
:1026B000816170470904816170470000002800F0C3
:1026C000CC8070B5044690F83D30002B77D02423A1
:1026D00084F83D302268136823F0010313602268F8
:1026E000136843F4004313602268136823F4004323
:1026F000136000F0C7FB62685A4B9A4264D85A4B89
:1027000098428CBF00230123002B40F0A88057493A
:10271000A1FB00318B0C25686A6822F03F0242EA77
:1027200091426A6021680A6A22F03F0266684D4D54
:10273000AE424FD8013313430B622168CA6922F4B9
:102740004F4222F0FF026568464B9D424CD8431E23
:102750006D00B3FBF5F3013340F6FC70034278D013
:10276000C3F30B031A43CA6121680B6823F0C0034B
:10277000E269206A024313430B6021688B6823F4EB
:10278000034323F0FF032269E068024313438B6095
:102790002168CB6823F0FF036269A06902431343F9
:1027A000CB602268136843F00103136000202064AB
:1027B000202384F83D30206384F83E0070BD80F80B
:1027C0003C30FFF7E1F982E7294B98428CBF0023A8
:1027D000012399E74FF4967505FB03F3254DA5FBFF
:1027E00003539B090133A6E7A668BEB9431E05EB58
:1027F000450CB3FBFCF30133C3F30B03B3FA83F3D0
:102800005B0943BBC6B9431E05EB4505B3FBF5F3B6
:102810000133C3F30B0343F40043A3E7431E05EB6B
:10282000850C0CEB8C0CB3FBFCF30133C3F30B03F3
:10283000B3FA83F35B09E4E7431E05EB850505EB7B
:102840008505B3FBF5F30133C3F30B0343F44043B6
:1028500088E7042386E7012384E7012070470120ED
:10286000ACE700BFA08601007F841E0083DE1B430F
:10287000FF083D00D34D6210002800F0E08170B5E4
:1028800082B00446036813F0010F3BD09F4B9B6856
:1028900003F00C03042B2CD09C4B9B6803F00C031F
:1028A000082B21D06368B3F5803F4FD0B3F5A02F3C
:1028B00052D0964B1A6822F480321A601A6822F4B9
:1028C00080221A606368002B50D0FFF72DFB05466D
:1028D0008E4B1B6813F4003F14D1FFF725FB401B00
:1028E0006428F5D90320B1E1884B5B6813F4800FAD
:1028F000D8D0864B1B6813F4003F03D06368002BCD
:1029000000F09F81236813F0020F54D07F4B9B6827
:1029100013F00C0F3ED07D4B9B6803F00C03082B8B
:1029200033D0E368002B68D0794B01221A60FFF79F
:10293000FBFA0546754B1B6813F0020F54D1FFF7E5
:10294000F3FA401B0228F5D903207FE16F4A136890
:1029500043F480331360B5E76C4B1A6842F480226D
:102960001A601A6842F480321A60ABE7FFF7DCFAAB
:102970000546664B1B6813F4003FC3D0FFF7D4FA3B
:10298000401B6428F5D9032060E1604B5B6813F4B9
:10299000800FC6D15D4B1B6813F0020F03D0E368B4
:1029A000012B40F05081594A136823F0F803216944
:1029B00043EAC1031360236813F0080F42D0636930
:1029C0006BB3534B0122C3F8802EFFF7ADFA0546D7
:1029D0004E4B5B6F13F0020F34D1FFF7A5FA401B8B
:1029E0000228F5D9032031E1484A136823F0F8039F
:1029F000216943EAC1031360DDE7454B00221A60F9
:102A0000FFF792FA0546414B1B6813F0020FD2D034
:102A1000FFF78AFA401B0228F5D9032016E13C4B48
:102A20000022C3F8802EFFF77FFA0546374B5B6F15
:102A300013F0020F06D0FFF777FA401B0228F5D9F2
:102A4000032003E1236813F0040F77D02F4B1B6C96
:102A500013F0805F33D1002301932C4B1A6C42F0AA
:102A600080521A641B6C03F080530193019B012573
:102A7000284B1B6813F4807F23D0A368012B34D02C
:102A8000052B38D0214B1A6F22F001021A671A6FFA
:102A900022F004021A67A368002B3DD0FFF744FA26
:102AA00006461A4B1B6F13F0020F46D1FFF73CFA94
:102AB000801B41F288339842F3D90320C6E00025F9
:102AC000D6E7144A136843F480731360FFF72CFAB7
:102AD0000646104B1B6813F4807FCED1FFF724FA13
:102AE000801B0228F5D90320B0E0084A136F43F099
:102AF00001031367CFE7054B1A6F42F004021A6710
:102B00001A6F42F001021A67C5E700BF00380240A1
:102B10000000474200700040FFF706FA0646524B9D
:102B20001B6F13F0020F08D0FFF7FEF9801B41F274
:102B300088339842F3D9032088E0EDB9A369002BCC
:102B400000F08380484A926802F00C02082A51D0B3
:102B5000022B17D0454B00221A66FFF7E5F9044611
:102B6000414B1B6813F0007F42D0FFF7DDF9001BDB
:102B70000228F5D9032069E03B4A136C23F0805307
:102B80001364DBE7394B00221A66FFF7CDF90546DF
:102B9000354B1B6813F0007F06D0FFF7C5F9401BCB
:102BA0000228F5D9032051E0E369226A1343626ADF
:102BB00043EA8213A26A5208013A43EA0243E26AF4
:102BC00043EA0263284A5360284B01221A66FFF742
:102BD000ABF90446244B1B6813F0007F06D1FFF7C6
:102BE000A3F9001B0228F5D903202FE000202DE0D7
:102BF00000202BE0012B2BD01B4B5B6803F48001E2
:102C0000E269914226D103F03F02216A8A4223D130
:102C1000616A47F6C0721A40B2EB811F1ED103F4FD
:102C20004031A26A5208013AB1EB024F18D103F0C9
:102C30007063E26AB3EB026F14D1002006E001205A
:102C40007047012002E0012000E0002002B070BDCA
:102C50000120FBE70120F9E70120F7E70120F5E774
:102C60000120F3E70120F1E700380240000047426D
:102C700008B5264B9B6803F00C03042B41D0082BAE
:102C800041D1224B5A6802F03F025B6813F4800F77
:102C900012D01E4B5968C1F388111D480023A1FBB7
:102CA0000001FDF79FFF194B5B68C3F3014301333C
:102CB0005B00B0FBF3F008BD144B5868C0F38810FC
:102CC0004FEA401CBCEB000C6EEB0E0E4FEA8E136D
:102CD00043EA9C634FEA8C11B1EB0C0163EB0E03EA
:102CE000DB0043EA5173C90011EB000C43F1000310
:102CF000990200234FEA8C2041EA9C51FDF772FFB4
:102D0000D1E70348D7E70348D5E700BF00380240C2
:102D100040787D010024F400002800F09B8070B50D
:102D20000D4604464F4B1B6803F007038B4208D245
:102D3000CBB24C4A1370136803F007038B4240F088
:102D40008B80236813F0020F17D013F0040F04D008
:102D5000454A936843F4E0539360236813F0080FE7
:102D600004D0414A936843F4604393603E4A9368B9
:102D700023F0F003A1680B439360236813F0010F65
:102D800032D06368012B21D09A1E012A25D9364AF8
:102D9000126812F0020F61D033498A6822F00302F0
:102DA00013438B60FFF7C0F806462F4B9B6803F078
:102DB0000C036268B3EB820F16D0FFF7B5F8801BE7
:102DC00041F288339842F0D9032042E0264A126843
:102DD00012F4003FE0D101203BE0234A126812F0D8
:102DE000007FD9D1012034E01E4B1B6803F007039C
:102DF000AB4207D9EAB21B4B1A701B6803F00703FA
:102E0000AB422DD1236813F0040F06D0164A936805
:102E100023F4E053E1680B439360236813F0080F39
:102E200007D0114A936823F46043216943EAC10340
:102E30009360FFF71DFF0C4B9B68C3F303130B4A12
:102E4000D35CD8400A4B18600A4B1868FFF720F88B
:102E5000002070BD012070470120FAE70120F8E74B
:102E60000120F6E7003C024000380240F4930008DD
:102E7000040000200C000020014B1868704700BFC0
:102E80000400002008B5FFF7F7FF044B9B68C3F36D
:102E90008223034AD35CD84008BD00BF00380240FB
:102EA000EC93000808B5FFF7E7FF044B9B68C3F3FA
:102EB0004233034AD35CD84008BD00BF003802400B
:102EC000EC93000830B583B00446036813F0050F97
:102ED0000ED1236813F0020F36D1236813F0080FC8
:102EE00000F09B80227C4E4BC3F8E021002095E04F
:102EF0004C4B00229A66FFF717F805464A4B1B68B1
:102F000013F0006F06D0FFF70FF8431B022BF5D923
:102F1000032083E06268A3681B0743EA8213424AE6
:102F2000C2F884303F4B01229A66FEF7FDFF05464A
:102F30003D4B1B6813F0006FCBD1FEF7F5FF401B34
:102F40000228F5D9032069E000230193364B1A6C5F
:102F500042F080521A641B6C03F080530193019B72
:102F6000324A136843F480731360FEF7DDFF0546B1
:102F70002E4B1B6813F4807F06D1FEF7D5FF431B51
:102F8000022BF5D9032049E0274B1B6F13F4407344
:102F900014D0E26802F440729A420FD0224B1A6FAA
:102FA00022F440721F490120C1F8400E0020C1F8F0
:102FB000400E1A671B6F13F0010F12D1E36803F480
:102FC0004072B2F5407F1DD0174A936823F4F8137E
:102FD000936015490B6FE268C2F30B0213430B6752
:102FE0007BE7FEF7A1FF05460F4B1B6F13F0020FA7
:102FF000E4D1FEF799FF401B41F288339842F3D9A0
:1030000003200BE008498A6822F4F81223F0704389
:1030100023F4407313438B60DBE7002003B030BD23
:103020000010474200004742003802400070004054
:1030300038B5044603680A4ADA60FEF775FF0546AC
:103040002368DB6813F0200F07D1FEF76DFF401BEC
:10305000B0F57A7FF4D9032000E0002038BD00BF2E
:103060005F3F010070B50368DA6812F0400F02D0CC
:103070000025284670BD0446DA6842F08002DA6016
:10308000FEF752FF064600252368DB6813F0400F69
:10309000EFD1002DEDD1FEF747FF831BB3F57A7F0B
:1030A000F2D9042363770125EEE70268D36823F0A1
:1030B0008003D36003689B6813F0200F01D00020C9
:1030C000704710B50446FFF7B3FF10B104236377D0
:1030D000012010BD00284AD010B50446437F53B1EB
:1030E000022363772368DA6812F0100F07D00020FC
:1030F0000123637710BD0377FEF790FDF0E7CA2246
:103100005A62236853225A622046FFF7ABFF28B168
:103110002368FF225A620028ECD1E9E7226893680D
:1031200023F4E00323F04003936021688A68636816
:10313000206903436069034313438B602368E2689B
:103140001A6122681369A16843EA014313612046AA
:10315000FFF7ABFF0028DBD12268136C23F4802338
:1031600013642268136CA1690B431364D0E7012038
:103170007047002302E001330A38C0B20928FAD8A8
:103180001B01DBB218437047037F012B5AD070B587
:1031900004460E46012303770223437732BB0368BC
:1031A0009B6813F0400F01D10023CB703078FFF7FC
:1031B000E0FF05047078FFF7DCFF45EA0025B078F2
:1031C000FFF7D7FF0543F37845EA83552368CA2202
:1031D0005A62236853225A622046FFF743FFB8B170
:1031E0002368FF225A620023237770BD03689B681F
:1031F00013F0400F01D10023CB70337875782D0286
:1032000045EA0345B3781D43F37845EA8355DDE786
:10321000236805F07F3525F0FE451D602268936820
:1032200023F48023936021688B68F268306902433D
:1032300013438B602046FFF738FF0028D0D10123CD
:103240006377CDE702207047037F012B48D070B52C
:1032500004460E460123037702234377CAB1CB7895
:103260004D782D0245EA03458B781D430B7845EADE
:1032700043352368CA225A62236853225A62204681
:10328000FFF7F0FEF0B12368FF225A620023237794
:1032900070BD4B7813F0100F03D003F0EF030A3327
:1032A0004B70F078FFF765FF05047078FFF761FF5A
:1032B00045EA0025B078FFF75CFF0543337845EA1F
:1032C0004335D6E7236825F07F4525F0C0055D60CE
:1032D0002046FFF7EAFE0028D5D101236377D2E725
:1032E00002207047030903EB830300F00F0000EB9B
:1032F0004300C0B2704770B503689B6A4B600368B7
:103300001B69C3F30E038B6003681B68C3F305409E
:103310000870C3F306264E7003F07F058D70C3F36B
:103320008053CB705AB90C46FFF7DCFF2070304653
:10333000FFF7D8FF60702846FFF7D4FFA070002089
:1033400070BD70B503685B68C3F30740C870C3F312
:1033500004264E7003F03F058D70C3F342330B70AB
:103360005AB90C46FFF7BEFFE0703046FFF7BAFFD0
:1033700060702846FFF7B6FFA070002070BD10B443
:10338000036A046A24F001040462846924F0F00CE6
:103390004CEA021223F00A030B438261036210BC61
:1033A000704710B4036A046A24F01004046284694C
:1033B00024F4704C4CEA023223F0A00343EA0113D8
:1033C0008261036210BC7047836823F070030B4373
:1033D00043F007038360704790F83D30DBB2012B68
:1033E0002AD1022380F83D300368154A934218D051
:1033F000B3F1804F15D0A2F57C42934211D002F573
:10340000806293420DD002F58062934209D002F5AA
:103410009A32934205D01A6842F001021A600020E5
:1034200070479A6802F00702062A07D01A6842F02D
:1034300001021A6000207047012070470020704789
:1034400000000140704770477047704770B50446F0
:103450000368DE681D6915F0020F10D016F0020F28
:103460000DD06FF002021A610123037703689B6994
:1034700013F0030F5ED0FFF7E6FF0023237715F06C
:10348000040F12D016F0040F0FD023686FF004025F
:103490001A610223237723689B6913F4407F4FD07E
:1034A0002046FFF7D0FF0023237715F0080F12D036
:1034B00016F0080F0FD023686FF008021A6104237A
:1034C00023772368DB6913F0030F40D02046FFF712
:1034D000BAFF0023237715F0100F12D016F0100F4B
:1034E0000FD023686FF010021A6108232377236836
:1034F000DB6913F4407F31D02046FFF7A4FF00239F
:10350000237715F0010F02D016F0010F2DD115F021
:10351000800F02D016F0800F2FD115F0400F02D08F
:1035200016F0400F31D115F0200F02D016F0200F09
:1035300033D170BDFFF786FF2046FFF785FF9CE77C
:103540002046FFF77FFF2046FFF77EFFABE72046D0
:10355000FFF778FF2046FFF777FFBAE72046FFF72F
:1035600071FF2046FFF770FFC9E723686FF0010283
:103570001A612046FEF728F9C9E723686FF0800238
:103580001A61204600F05FF9C7E723686FF0400238
:103590001A612046FFF759FFC5E723686FF0200244
:1035A0001A61204600F04EF9C3E700000368294A7B
:1035B00090420ED0B0F1804F0BD0A2F57C429042E9
:1035C00007D002F58062904203D002F580629042FB
:1035D00003D123F070034A6813431E4A90421AD065
:1035E000B0F1804F17D0A2F57C42904213D002F583
:1035F000806290420FD002F5806290420BD002F5BB
:103600009A32904207D002F58062904203D002F5D0
:103610008062904203D123F44073CA68134323F0BD
:1036200080034A69134303608B68C3620B6883623B
:10363000084B98420AD001234361036913F0010F3C
:1036400003D0036923F00103036170470B6903632F
:10365000F1E700BF0000014040B310B5044690F808
:103660003D30F3B1022384F83D30214651F8040B7C
:10367000FFF79CFF012384F8463084F83E3084F83D
:103680003F3084F8403084F8413084F8423084F888
:10369000433084F8443084F8453084F83D300020CD
:1036A00010BD80F83C30FEF7DDFADBE70120704703
:1036B00010B4846824F47F4C42EA03220A4342EAAD
:1036C0000C02826010BC704790F83C30012B78D01F
:1036D00010B50446012380F83C30022380F83D30C9
:1036E0000268936823F47F4323F0770393600B68A9
:1036F000602B4CD023D8402B54D011D8202B03D092
:103700000AD80BB1102B05D119462068FFF75CFED3
:10371000002028E0012026E0302BF5D0012022E017
:10372000502B0AD1CA6849680068FFF728FE50216B
:103730002068FFF749FE002015E0012013E0B3F5F3
:10374000805F3AD0B3F5005F14D0702B37D1CB68CF
:103750004A6889680068FFF7ABFF2268936843F006
:10376000770393600020012384F83D30002384F820
:103770003C3010BDCB684A6889680068FFF798FF45
:103780002268936843F4804393600020EBE7CA68A3
:1037900049680068FFF705FE60212068FFF714FE06
:1037A0000020E0E7CA6849680068FFF7E8FD4021AB
:1037B0002068FFF709FE0020D5E70020D3E70120AD
:1037C000D1E702207047000090F83C20012A34D055
:1037D00010B40346012280F83C20022280F83D20EC
:1037E00002685068946820F0700C086840EA0C0089
:1037F00050601A681248824212D0B2F1804F0FD046
:10380000A0F57C4082420BD000F58060824207D058
:1038100000F58060824203D000F59A30824204D1E4
:1038200024F08004496821439160012283F83D20FF
:10383000002083F83C0010BC70470220704700BF96
:103840000000014070477047026802F10C0353E822
:10385000003F23F490730C3242E800310029F3D189
:10386000026802F1140353E8003F23F0010314320D
:1038700042E800310029F3D1036B012B05D020234E
:1038800080F84230002303637047026802F10C03A2
:1038900053E8003F23F010030C3242E800310029C6
:1038A000F3D1ECE790F84130DBB2212B01D00220BC
:1038B00070478368B3F5805F17D0036A5A1C0262B1
:1038C0001A7803685A60C38C9BB2013B9BB2C384D5
:1038D0004BB90268D36823F08003D3600268D368D1
:1038E00043F04003D360002070470369002BE4D10C
:1038F000036A1B880268C3F308035360036A023338
:103900000362E0E710B504460268136923F44053EC
:10391000C1680B431361836802691A4343691A4300
:10392000C3691A430168CB6823F4164323F00C03E0
:103930001343CB600268536923F4407381690B43DE
:1039400053610368314A934206D002F58062934284
:1039500002D0FFF797FA01E0FFF7A4FAE369B3F5A5
:10396000004F29D00021031849411B1841F10001E3
:10397000C90041EA5371DB00181863684FEA8302FB
:103980004FEA937341F10001FDF72CF9204AA2FBA5
:1039900000314909642303FB11031B013233A2FBED
:1039A00003235B0903F0F00202EB011203F00F03A3
:1039B000216813448B6010BD0023021843EB030100
:1039C000121841F10001C90041EA5271D2001018E9
:1039D00041F10001626892185B41FDF703F90C4A5E
:1039E000A2FB00314909642303FB1103DB003233DE
:1039F000A2FB03235B095A0002F4F87202EB0112E6
:103A000003F00703216813448B60D4E700100140E2
:103A10001F85EB512DE9F04383B005460E4617464E
:103A20009946DDF828802B681C6836EA04040CBF30
:103A300001240024BC4228D1B8F1FF3FF3D0FEF7A7
:103A400073FAA0EB0900404523D8B8F1000F22D04B
:103A50002B68DA6812F0040FE5D0802EE3D0402EF8
:103A6000E1D01A6812F0080FDDD0002401941A6822
:103A700001925B680193019B2846FFF7E5FE08234E
:103A80006B6485F84040012000E0002003B0BDE8F1
:103A9000F0830320FAE70320F8E760B310B504468B
:103AA00090F8413013B3242384F841302268D3685E
:103AB00023F40053D3602046FFF724FF22681369E4
:103AC00023F4904313612268536923F02A0353615E
:103AD0002268D36843F40053D3600020606420233D
:103AE00084F8413084F84230606310BD80F8403083
:103AF000FEF7EAF8D7E7012070472DE9F04182B0E0
:103B00001E4690F84130DBB2202B56D104460D46BC
:103B10009046002955D00AB901204FE000234364A4
:103B2000212380F84130FEF7FFF90746A4F82480EE
:103B3000A4F82680A368B3F5805F02D04FF0000898
:103B400014E023692BB34FF000080FE0202384F822
:103B50004130032032E038F8023B2268C3F3080307
:103B60005360E28C92B2013A92B2E284E38C9BB24F
:103B700093B100963B46002280212046FFF74AFF82
:103B80000028E3D1002DE6D015F8012B23685A60F8
:103B9000E7E7A8460025E9E700963B4600224021DA
:103BA0002046FFF737FF18B9202384F8413005E09D
:103BB000202384F84130032000E0022002B0BDE859
:103BC000F0810120FAE7704708B50168CA6822F061
:103BD0004002CA60202280F84120FFF7F4FF002055
:103BE00008BD704708B5806B0023C385C384FFF709
:103BF000F8FF08BD704790F84230DBB2222B69D144
:103C00008368B3F5805F4FD0826AB3F5805F04D0DC
:103C1000002B56D10369002B53D103685B681370E6
:103C2000836A01338362C38D9BB2013B9BB2C38520
:103C3000002B51D100B583B00268D36823F0200374
:103C4000D3600268D36823F48073D3600268536939
:103C500023F001035361202380F8423000234363A3
:103C6000036B012B33D100230363026802F10C03C1
:103C700053E8003F23F010030C3242E800310029E2
:103C8000F3D103681A6812F0100F06D000220192D7
:103C90001A6801925B680193019B818DFFF7AAFF6F
:103CA000002003B05DF804FB0269002AACD1826AEF
:103CB00003685B68C3F308031380836A023383627B
:103CC000B1E703685B6803F07F031370A8E7FDF7B3
:103CD00067FDE5E7022070470020704710B582B00D
:103CE000044602681368D068516913F00F0F09D1B8
:103CF00013F0200F0CD010F0200F09D02046FFF752
:103D00007AFF16E011F0010115D110F4907F12D165
:103D1000216B012979D013F0800F03D010F0800FB0
:103D200040F0148113F0400F03D010F0400F40F02A
:103D3000118102B010BD13F0010F06D010F4807F86
:103D400003D0626C42F00102626413F0040F04D0ED
:103D500019B1626C42F00202626413F0020F04D0E7
:103D600019B1626C42F00402626413F0080F07D0CC
:103D700010F0200F00D119B1626C42F008026264A9
:103D8000626C002AD5D013F0200F02D010F0200F63
:103D900029D123685B6903F04003626C12F0080FBD
:103DA00000D163B32046FFF74FFD23685B6913F032
:103DB000400F20D0226802F1140353E8003F23F0A3
:103DC0004003143242E800310029F3D1E36B73B1B0
:103DD000624A1A65E06BFEF787F90028A9D0E06B0C
:103DE000036D9847A5E72046FFF705FFD1E720467A
:103DF000FFF7F7FE9DE72046FFF7F3FE99E7204621
:103E0000FFF7EFFE0023636493E713F0100F82D0F7
:103E100010F0100F3FF47FAF00230193136801935C
:103E200053680193019B536913F0400F52D0E26B2A
:103E300013685B689BB2002B3FF47BAFA18D994266
:103E40007FF677AFE385D369B3F5807F37D02268FB
:103E500002F10C0353E8003F23F480730C3242E874
:103E600000310029F3D1226802F1140353E8003F26
:103E700023F00103143242E800310029F3D1226813
:103E800002F1140353E8003F23F04003143242E8E8
:103E900000310029F3D1202384F84230002323632A
:103EA000226802F10C0353E8003F23F010030C32A8
:103EB00042E800310029F3D1E06BFEF7CBF8022392
:103EC0006363A18DE38D9BB2C91A89B22046FFF7C7
:103ED00091FE2EE7A18DE38D9BB2C91A89B2E38DC5
:103EE0009BB2002B3FF425AF00293FF422AF22689C
:103EF00002F10C0353E8003F23F490730C3242E8C4
:103F000000300028F3D1226802F1140353E8003F87
:103F100023F00103143242E800300028F3D12023BB
:103F200084F8423000232363226802F10C0353E833
:103F3000003F23F010030C3242E800300028F3D198
:103F4000022363632046FFF755FEF2E62046FFF7A3
:103F5000A9FCEEE62046FFF737FEEAE6E53B00085F
:103F600081628285C28500234364222380F8423027
:103F7000036923B10268D36843F48073D360026895
:103F8000536943F0010353610268D36843F020038F
:103F9000D3600020704708B590F84230DBB2202B88
:103FA00008D149B10AB9012008BD00230363FFF716
:103FB000D7FFF9E70220F7E70120F5E700230146E4
:103FC0001A46184600F038BD024B0146186800F04A
:103FD0000BB800BF2C040020024B0146186800F00B
:103FE000D1BD00BF2C0400202DE9F04F01F10B05DD
:103FF000162D83B0064623D8102900F2AF8000F0BA
:10400000A5FA102518230220B74F3B44A3F108025C
:104010005C68944200F01F816368E268A16823F045
:104020000303CA602344304691605A6842F001029B
:104030005A6000F091FA0834204603B0BDE8F08FD2
:1040400035F0070500F18A80A94200F2878000F070
:104050007DFAB5F5FC7FC0F06E816B0A00F08280BE
:10406000042B00F21E81AB0903F1390003F1380E75
:10407000C3009D4F3B44A3F1080C5C68A44507D1E5
:104080000DE0002AE16880F2E0808C4507D00C4604
:10409000636823F003035A1B0F2AF2DD7046DFF832
:1040A0004C823C69444500F0BD80636823F0030CFA
:1040B000ACEB05030F2B00F34281002BC7E904880A
:1040C00080F22D81BCF5007FD7F804E080F0C98034
:1040D0004FEADC0101314FEA5C1C012303FA0CF3C7
:1040E00057F83120A2604EEA030E07EBC103083BEC
:1040F000E360C7F804E047F83140D46083104FF024
:10410000010C0CFA03FCF44532D81CEA0E0F08D15E
:1041100020F003004FEA4C0C1CEA0E0F00F10400E3
:10412000F8D007EBC00AD6468146DEF80C300BE02B
:10413000596821F003014A1B0F2A1C46DB6800F373
:10414000BC80002A80F2DE809E45F1D109F1010990
:1041500019F0030F0EF1080EE7D119E10C233360BB
:10416000002469E74FF4007340204FF03F0E80E7D2
:10417000BC68636823F00309A94503D3A9EB0503D1
:104180000F2B52DC5A4B1B68082003F1100804EB7C
:104190000903009300F042FC564A13680133A84417
:1041A000834605D008F1FF388044434203EA0808FB
:1041B0004146304600F0C0FBB0F1FF3F4D4A824619
:1041C00000F0D88004EB0903834200F2D1804A4B0F
:1041D000186840440BF1FF311860844640F0FB80C2
:1041E0001AEA010F40F0F780D7F808A0C84448F059
:1041F0000102CAF80420414B1968814238BF186097
:104200003F4B1968814238BF1860544622F00308BA
:10421000A845A8EB050301D30F2B06DC304600F0C0
:104220009BF99DE7D7F804E068E7621943F00103C2
:1042300045F0010565603046BA60536000F08CF9C6
:104240000834204603B0BDE8F08FA2682344D16053
:1042500030468A60E9E6DC68A3427FF4DDAE0230D6
:104260001DE7BCF5206F4FEA5C227AD3142A00F2D6
:10427000128102F15C03DB005B32F918FB5808394C
:10428000994203D1ECE09B68994204D05A6822F02D
:1042900003026245F7D8D968C4E902318C60DC605A
:1042A0002CE7142B69D9542B00F2FE802B0B03F161
:1042B0006F0003F16E0EC300DBE6D4F808C0304691
:1042C000661945F001056560CCF80C30C3F808C0EC
:1042D00042F00103C7E90466C6E9028873606250D0
:1042E00000F03AF90834A7E618000020200000206A
:1042F000BC080020100000208C080020B808002016
:10430000B4080020214430464A6842F001024A6065
:1043100054F8082FD3609A6000F01EF98CE6A4448C
:104320003046DCF8043043F00103CCF8043000F0F0
:1043300013F9083480E6E80805F1080364E6621919
:1043400043F0010145F0010565603046C7E90422EC
:10435000C2E90288516044F80C3000F0FDF80834DE
:104360006AE64FEA9C1202F13903DB00383284E737
:10437000BC4228D0BC68626848E703F15C0003F1E6
:104380005B0EC30075E65AF80839534540F0DA80F1
:1043900010F0030F00F1FF30F5D17B6823EA0C0326
:1043A0007B604FEA4C0C9C453FF6E2AEBCF1000F3F
:1043B00004D1DDE64FEA4C0C09F104091CEA030FB5
:1043C000F8D04846ADE6604B186808EB000C0BF1DE
:1043D000FF31C3F800C0106801306FD004EB090250
:1043E000AAEB020262441A601AF00702CDE9002328
:1043F00040D0C2F108029244D04408EA01005A4475
:10440000121A02EA010B5946304600F095FA421C96
:10441000019B6FD0A0EB0A0000EB0B081868C7F8EF
:1044200008A048F001025844BC42CAF804201860B1
:104430003FF4E1AEB9F10F0F43D96168A9F10C0265
:1044400022F0070201F00101114361604FF0050CF9
:10445000A1180F2AC1E901CC54D8DAF80420CAE621
:1044600092104FF0010C0CFA02F24EEA020EC7F85D
:1044700004E011E70AEB08020A40ABEB020202EA91
:10448000010B5946304600F057FA431C019BC1D13D
:10449000DDF800B0C2E7542A17D84FEA1C3202F107
:1044A0006F03DB006E32E8E6B3F5AA7F17D8EB0B9B
:1044B00003F1780003F1770EC300DAE5C2F800A03B
:1044C00092E70123CAF80430A8E6B2F5AA7F24D8FF
:1044D0004FEADC3202F17803DB007732CDE640F2BE
:1044E0005452934224D8AB0C03F17D0003F17C0EAF
:1044F000C300BEE5009A083A9044A8EB0A084FF0C2
:10450000000B8BE7304604F10801009300F03AFB02
:10451000009BD7F808A018689FE740F254539A42CE
:104520000CD84FEA9C4202F17D03DB007C32A4E60A
:104530004FF47E737F204FF07E0E9AE54FF47E732A
:104540007E229AE67B682CE78C080020014800F068
:1045500061BA00BF000A0020014800F05DBA00BF48
:10456000000A0020024A0349034800F0C9B800BF0E
:10457000200400209D610008300400200C4B41689D
:10458000994210B5044601D001F008FEA168094B1C
:10459000994202D0204601F001FEE168064B9942A3
:1045A00004D02046BDE8104001F0F8BD10BD00BFAA
:1045B000C008002028090020900900202DE9F843B8
:1045C000314A324C3249DFF8CC90DFF8CC80334F9F
:1045D0001160002504232946082204F15C00C4E987
:1045E00003352F4EA560C4E90055C4E9055565663D
:1045F00000F012F904F15800C4E90749C4E9098739
:10460000E66200F003FA2946264B6367082204F1AC
:10461000C400C4E91A55C4E91E552567C4F8CC5036
:10462000C4F8805000F0F8F804F1680304F1C00009
:10463000C4F88430C4E92298C4E9247600F0E6F98D
:10464000194BC4F8DC30294604F596700822C4E9F9
:104650003455C4E93855C4F8D850C4F83451C4F8B6
:10466000E85000F0D9F804F1D003C4E93D87C4F85C
:10467000F09004F59470C4F8FC60C4F8EC30BDE828
:10468000F84300F0C3B900BFF8090020C0080020BB
:104690006545000889470008AD470008ED47000858
:1046A00011480008090001001200020010B504467C
:1046B0000A4800F0AFF9636B23B9094B094A1B683C
:1046C000626323B1BDE81040044800F0A5B9FFF7CC
:1046D00075FFBDE81040014800F09EB9080A0020AF
:1046E000F80900207D450008014800F093B900BF9B
:1046F000080A0020014800F08FB900BF080A002016
:104700002DE9F8430746884616464FF00009D6E9DA
:104710000154013D10D4A389012B08D9B4F90E30FE
:1047200001332146384602D0C04749EA0009013D1D
:104730006B1C04F16804EED13668002EE7D14846C0
:10474000BDE8F8830EB430B59CB06FF000411FABEC
:10475000049107910A4953F8042B02900024069013
:10476000084D0868019302A905951B9400F006FB0B
:10477000029B1C701CB0BDE8304003B0704700BF06
:104780002C0400200802FFFF10B50C46B1F90E10F2
:1047900000F0BCF8002803DB236D0344236510BD43
:1047A000A38923F48053A38110BD00BF2DE9F041FC
:1047B0000C46B1F90C101F46CB05054616460BD426
:1047C00021F48051A1813B46B4F90E1032462846AF
:1047D000BDE8F04100F0C2B8B4F90E100223002287
:1047E00000F07EF8B4F90C10EAE700BF10B50C46F3
:1047F000B1F90E1000F074F8B4F90C30421C0EBF81
:1048000023F4805343F480532065A38110BD00BF7F
:10481000B1F90E1000F052B8830730B547D0541EDE
:10482000002A3ED0CAB2034601E0013C39D303F866
:10483000012B9D07F9D1032C2CD9CDB205EB052511
:104840000F2C05EB054535D9A4F1100222F00F0C11
:1048500003F1100EE6444FEA121C1A46C2E9005555
:10486000C2E9025510327245F8D10CF1010214F080
:104870000C0F03EB021204F00F0C13D0ACF1040385
:1048800023F003030433134442F8045B9342FBD147
:104890000CF003042CB1C9B21C4403F8011BA34261
:1048A000FBD130BD64461346002CF4D1F9E7034632
:1048B0001446C0E71A46A446E0E700BF38B5074DE6
:1048C0000022044608462A60FDF786FA431C00D001
:1048D00038BD2B68002BFBD0236038BDFC090020BD
:1048E00038B50C46084D8446114620461A4600232A
:1048F0002B606446FDF77AFA431C00D038BD2B6864
:10490000002BFBD0236038BDFC09002038B50C46D5
:10491000084D8446114620461A4600232B60644603
:10492000FDF73CFA431C00D038BD2B68002BFBD0B0
:10493000236038BDFC09002038B5074D002204462D
:1049400008462A60FDF754FA431C00D038BD2B6896
:10495000002BFBD0236038BDFC09002038B50C4685
:10496000084D8446114620461A4600232B606446B3
:10497000FDF724FA431C00D038BD2B68002BFBD078
:10498000236038BDFC090020014B1868704700BF48
:104990002C04002070B50F4B0F4DAB42A3EB050666
:1049A00007D0B610002455F8043B01349847A642BE
:1049B000F9D804F06DFC094D094B5E1BAB424FEA80
:1049C000A60606D0002455F8043B01349847A642B9
:1049D000F9D870BD4C9600084C9600084C9600081B
:1049E0005496000838B5074D074C2C1BA41005D071
:1049F000013C55F8043D9847002CF9D1BDE83840FA
:104A000004F04CBC5896000854960008704700BF4C
:104A1000704700BF704700BF704700BF082802D131
:104A20004FF48050704708B5FFF7AEFF16230360C0
:104A30004FF0FF3008BD00BF2DE9F8431B4D06467F
:104A4000286898460F469146FFF7E4FF184B1C680C
:104A50001CB3286865681F2D22DC4EB96B1C02351B
:104A6000636044F82570FFF7D7FF0020BDE8F883A6
:104A700004EB85010123C1F88890D4F88821AB406C
:104A80001A43022EC4F88821C1F80881E6D1D4F86F
:104A90008C211A43C4F88C21E0E7064C1C60D8E74F
:104AA000FFF7BAFF4FF0FF30E0E700BF50050020EE
:104AB0009C0B00200C0A0020024B13B10248FFF7A8
:104AC0007DBA704700000000E54900082DE9F84371
:104AD000064608208946FFF7A1FFDFF89C800546BF
:104AE0003046FFF733FDD8F808305F6827F003073A
:104AF000A7F11104A4EB09042C44B4FBF5F4013C28
:104B000005FB04F4A54208DC00213046FFF714FF42
:104B1000D8F808303B44984205D03046FFF71CFDDA
:104B20000020BDE8F88361423046FFF705FF013001
:104B30000FD0124AD8F808303F1B47F001075F60DA
:104B4000136830461B1B1360FFF706FD0120BDE80C
:104B5000F88300213046FFF7EFFED8F80820831ACB
:104B60000F2BDADD43F001035360054B03491B684B
:104B7000C01A0860D1E700BF180000208C08002090
:104B80001000002000297CD0F8B50C460646FFF73F
:104B9000DDFC54F8043C764FA4F1080523F0010134
:104BA0006818D7F808C04268844522F0030200F074
:104BB0008380DB07426000EB020C33D454F8084CCE
:104BC000DCF804302D1B2144AC6807F1080C644567
:104BD00003F0010364D0D5F80CE0C4F80CE0CEF883
:104BE0000840002B00F0818041F001036B60016000
:104BF000B1F5007F22D27868CB0801224909013340
:104C00008A40024357F833107A6007EBC302083A30
:104C1000C5E9021247F83350CD603046BDE8F84090
:104C2000FFF79ABCDCF80430DB072BD541F0010319
:104C3000B1F5007F44F8043C0160DCD3B1F5206F8E
:104C40004FEA512353D28B0903F1390003F13802A3
:104C5000C300F818FB580838984203D161E09B68FC
:104C6000984204D05A6822F003028A42F7D8D868E2
:104C7000C5E902308560DD603046BDE8F840FFF7E9
:104C80006BBC7047114407F1080C836863453FD043
:104C9000C268DA60936041F001036B606950A7E776
:104CA000002B5FD10A44D0E90213CB60996042F037
:104CB00001036B60AA50B0E70A44D90707D454F83F
:104CC000083CED1A1A44D5E90213CB60996042F012
:104CD00001036B60274BBD601B6893429DD8264B38
:104CE00030461968FFF7F2FE97E71144CDE7142B21
:104CF00008D9542B1DD80B0B03F16F0003F16E0282
:104D0000C300A6E703F15C0003F15B02C300A0E768
:104D100041F00103C7E90455C5E902CC6B60695055
:104D20007BE779689210012404FA02F20A437A6060
:104D30009EE7B3F5AA7F06D8CB0B03F1780003F109
:104D40007702C30085E740F25452934206D88B0C99
:104D500003F17D0003F17C02C3007AE74FF47E7318
:104D60007E2276E741F001036B60016055E700BFEA
:104D70001800002014000020BC0800202DE9F04F8E
:104D8000C3B00C460B9192460D930C9001F024FB9E
:104D9000036814931846FCF7F3F8A38913901E06D2
:104DA00003D52369002B00F0A1860023CDE926332B
:104DB000CDE915331293099300240023CDE9103473
:104DC00032AA25929146D3469BF80030002B00F082
:104DD0003C815C4604E014F8013F002B00F019818F
:104DE000252BF8D1B4EB0B0540F016812378002B6E
:104DF00000F02B814FF000038DF8773000276378A7
:104E0000089704F1010B4FF0FF3A0BF1010B9846A4
:104E1000A8F12003582B00F22581DFE813F04902A6
:104E20002301230144022301230123012301230140
:104E300023010C023E02230117021C022301390246
:104E4000590059005900590059005900590059009A
:104E500059002301230123012301230123012301FD
:104E600023012301230168009E0123019E012301E8
:104E7000230123012301740223012301950023014F
:104E80002301230123012301A600230123013F065F
:104E900023012301230123012301230123012301F2
:104EA0002301230166026A009E019E019E016102A8
:104EB0006A002301230154022301B00297009F02DC
:104EC0009A02230179022301A800230123015F062E
:104ED000A8F1300300221BF8018B02EB820203EBE6
:104EE0004202A8F13003092BF5D9089290E747F068
:104EF0001007BD0640F16E810D9B073323F00703B9
:104F00001A46596852F8083B0D920A460029C0F229
:104F10008C81BAF1000F9DF8774007DB27F0800104
:104F2000069153EA020100F0A883069F0A2B72F152
:104F3000000180F06F8630338DF8C730012306976B
:104F40000A930DF1C70550E047F0100717F0200253
:104F500000F057810D9B073323F0070319465A6869
:104F600051F8083B0D9100210FE047F0100717F0B2
:104F7000200200F03C810D9B073323F00703194604
:104F80005A6851F8083B0D9101210024BAF1000F35
:104F90008DF8774007DB27F08000069053EA020087
:104FA00000F06C83069F0129C0D0022900F0E7823F
:104FB00032AD03F00701DB0843EA4273D208303117
:104FC00053EA0206284605F8011DF2D1FB0740F11D
:104FD000E482302900F0E1823023023805F8013CF8
:104FE00032AB1B1A06970A9305460A9B5345B8BF76
:104FF0005346079300230F9314B1079B0133079384
:10500000069B13F002033FD0079B02330793022352
:105010003AE0B4EB0B0518D0279B2B442793269B33
:105020000133072BC9E900B5269305DC09F108090E
:10503000099B2B440993D9E6DDE90B1025AA01F061
:1050400081F830B90DF1C809F2E7279B002B40F039
:1050500046870B9B9B895B0601F11680099843B03C
:10506000BDE8F08FB8F1000FEFD000238DF8773056
:1050700001238DF8A08007930A9328AD4FF0000A12
:105080000697CDF83CA05346069A279C12F084025E
:105090000E9205D1DDE90712561A002E00F30083A7
:1050A0009DF877208AB1269A0DF1770101320134FB
:1050B000C9F80010072A4FF0010127942692C9F879
:1050C000041000F3268309F1080983B1269A1EA96A
:1050D00001320234C9F80010072A4FF00201279468
:1050E0002692C9F8041000F3228309F108090E9BE7
:1050F000802B00F0B9810A9BAAEB0306002E00F377
:10510000F581069BDE0500F147810A9BC9F8043052
:105110001C44269BC9F800500133072B2794269383
:1051200000F3548209F10809069B5A0705D5DDE909
:1051300007239D1A002D00F30683DDE90823079954
:105140008A42ACBF9B185B180993002C40F02A825E
:10515000002326930DF1C80936E60D9B073323F093
:105160000703F3E802450D9325F0004319931894C3
:10517000DDE91801B64B4FF0FF32CDE91045FCF7E1
:1051800005F8002840F00F84DDE91801B04B4FF01E
:10519000FF32FBF791FC002840F005840022002339
:1051A00020462946FBF77EFC002840F030869DF81B
:1051B0007740A84D27F080030693A74BB8F1470F1F
:1051C000D8BF1D464FF0000A032307930A93CDF87A
:1051D0003CA011E70D9AFC0652F8043B0D921FD437
:1051E00078061DD543F3C03211461BB28EE60D99E9
:1051F00051F8043B0D9117F0100100F0CC83012110
:10520000C3E60D9951F8043B0D9117F010017FF49E
:10521000AAAE17F040023FF4A6AE0A469BB2A2E641
:10522000DA1711460029BFF674AE5B4262EB420208
:105230002D240121AAE60D9B53F8042B0892002A85
:1052400080F2A183089A0D93524208929BF8003095
:1052500047F00407D9E55A4612F8018BB8F12A0F36
:1052600000F05B87A8F13003092B98BF4FF0000ACC
:1052700000F2C68612F8018B0AEB8A0A03EB4A0A8F
:10528000A8F13003092BF5D94AEAEA7A9346BFE53B
:105290009BF8003047F08007B7E52B238DF8773077
:1052A0009BF80030B1E59BF8003047F00107ACE512
:1052B0009DF877209BF80030002A7FF4A6AD2022CD
:1052C0008DF87720A1E59BF800306C2B03BF9BF88D
:1052D000013047F020070BF1010B47F0100794E570
:1052E0009BF8003047F040078FE50D9B00228DF8BA
:1052F000772053F8042B0D9301238DF8A0200793FA
:105300000A9328ADBAE69BF8003047F008077CE521
:105310000D9C54F8045B00268DF87760002D00F09A
:105320001D85BAF1000FC0F21C8452463146284652
:10533000FBF7D6FD002800F05286431B0A9323EAB0
:10534000E3730D94B2469DF87740069707930F9646
:1053500052E69BF8003047F0200756E50D9A52F8C8
:10536000043B0D9247F63002ADF878203B4A159287
:1053700047F00207002202214FF0780805E6BD063B
:1053800040F183830D9B099A1B681A60D2175A60FB
:105390000D9B04330D9317E5B8F1650F40F322819F
:1053A000DDE9100100220023FBF772FB002800F06A
:1053B0000682269B2A4AC9F80020013301340122C3
:1053C000072B27942693C9F8042000F3A08409F141
:1053D00008091F9B129A934203DB069BDD077FF5AA
:1053E000A3AE139B149A1C44C9E90023269B27945F
:1053F0000133072B269300F3A48409F10809129BBB
:105400005D1E002D7FF790AE102D269B154F40F3AB
:10541000D280DDE90BA8102605E009F10809103D4E
:10542000102D40F3C88001331034072BC9E90076F2
:10543000CDE92634F1DD25AA5146404600F082FE32
:1054400000287FF406AEDDE926340DF1C809E6E751
:10545000FFFFEF7FDC920008D8920008FC92000862
:105460001893000804940008DDE907239E1A002E13
:105470007FF741AE102E269BB74F24DD4A462146CA
:10548000A946DDE90B5404E0103E102E02F108029B
:1054900016DD013310311020072BCDE926311760BE
:1054A0005060F1DD25AA2946204600F04BFE002879
:1054B0007FF4CFAD103E102EDDE9263132AAE8DCB4
:1054C0004D460C46914601333444072BCDE9263432
:1054D000C9F80070C9F8046000F326840A9BAAEB9F
:1054E0000306002E09F108097FF70BAE102E269B4C
:1054F000994F2CDD4A462146B1464FF0100A2E4600
:10550000DDE90B5406E0A9F11009B9F1100F02F121
:10551000080218DD013390481031072BC2E9000A58
:10552000CDE92631EFDD25AA2946204600F00AFE06
:1055300000287FF48EADA9F11009B9F1100FDDE953
:10554000263132AAE6DC35460C464E4691460133FA
:105550003444072BCDE92634C9F80070C9F804603B
:1055600000F3EA8109F10809CBE50129069F4FF014
:1055700000033FF4E0AC02291A467FF419AD1598F8
:1055800032AD03F00F011B09415C05F8011D43EA30
:105590000273120953EA0201F3D132AB5B1B069787
:1055A0000A9322E5DDE90B1025AA00F0CBFD0028C7
:1055B0003FF4CEAD4DE501332C44072BC9F8007004
:1055C000C9F80450CDE926347FF7ACADDDE90B1006
:1055D00025AA00F0B7FD00287FF43BAD279C0DF114
:1055E000C809A1E5129B269E012B04F1010406F1D6
:1055F000010609F1080840F35B810123072ECDE97C
:105600002664C9F80050C9F8043000F3A281139B46
:10561000149A01361C44072EC8E90023CDE92664FC
:1056200000F3A48108F10808129BDDE9100103F1E1
:10563000FF3900220023FBF72BFA002840F05381AA
:10564000013601354C44072ECDE92664C8F80050D8
:10565000C8F8049000F33A8108F10808169BC8F8CE
:10566000043001361C44072E21ABCDE92664C8F86E
:105670000030ABDC08F1080956E50121BAF1000F52
:105680007FF473AF002940F00E8117F001030A93F5
:1056900000F07E8130238DF8C7300DF1C705A4E4FA
:1056A000102E269A2D4F26DD49462046A9461793EF
:1056B000DDE90B5404E0103E102E01F1080116DD67
:1056C000013210301023072ACDE926200F604B60ED
:1056D000F1DD25AA2946204600F034FD00287FF49C
:1056E000B8AC103E102EDDE9262032A9E8DC179B6D
:1056F0004D460446894601323444072ACDE9262422
:10570000C9F80070C9F8046000F3BE8209F1080905
:10571000C6E4DDE90B1025AA179300F013FD00285D
:105720007FF497AC279C179B0DF1C809CDE4DDE908
:105730000B1025AA00F006FD00287FF48AAC279CF8
:105740000DF1C809D3E4102D269B044F24DDDDE9BB
:105750000BA8102609E000BF049400081494000868
:10576000103D102D09F1080916DD01331034072B07
:10577000C9E90076CDE92634F2DD25AA5146404636
:1057800000F0E0FC00287FF464AC103D102DDDE952
:1057900026340DF1C809E8DC01332C44072BC9E994
:1057A0000075CDE926347FF7C8ACDDE90B1025AADA
:1057B00000F0C8FC00287FF44CAC279CBDE41F9986
:1057C000002940F370820F9F129B9F42A8BF1F4683
:1057D000002F0BDD269B01333C44072BC9E9005702
:1057E0002794269300F3DD8309F108090F9E002F0B
:1057F000A8BFF61B002E00F388811F9B129A9342CC
:1058000080F26F81139A14991444C9E90012269A00
:1058100027940132072A269200F3FE8209F1080933
:10582000129A0F99D31A561A9E42A8BF1E46002EEE
:105830000EDD269AC9F8046001320D443444072A6B
:10584000C9F800502794269200F3B78309F108099C
:10585000002EACBF9D1B1D46002D7FF765AC102DA3
:10586000269BAF4F7FF7A7AEDDE90BA8102605E01A
:1058700009F10809103D102D7FF79DAE013310345A
:10588000072BC9E90076CDE92634F1DD25AA51467A
:10589000404600F057FC00287FF4DBABDDE92634FE
:1058A0000DF1C809E6E7CDF828A032ADFFF79DBBA2
:1058B000069BD9073FF5A1AE0123072ECDE926644B
:1058C000C9F80050C9F804307FF7C8AEDDE90B1005
:1058D00025AA00F037FC00287FF4BBABDDE9266485
:1058E0000DF1C808BAE6129B012B7FF7B7AE112B5A
:1058F0008B4F40F37182DDF830A0102507E008F1EE
:105900000808A9F11009B9F1100F40F365820136BA
:105910001034072EC8E90075CDE92664EFDD0B9938
:1059200025AA504600F00EFC00287FF492ABDDE97A
:1059300026640DF1C808E4E7DDE90B1025AA00F0A4
:1059400001FC00287FF485AB279C0DF1C809FFF707
:10595000D8BBDDE90B1025AA00F0F4FB00287FF48A
:1059600078ABDDE926640DF1C80850E6DDE90B10DF
:1059700025AA00F0E7FB00287FF46BABDDE9266485
:105980000DF1C80850E60D939BF80030FFF73DBAC3
:1059900032ADFFF72ABB17F040021CBF0A469BB28C
:1059A0000121FFF7F2BADDE9100102460B46FBF7D1
:1059B000EDFB002840F06D83BAF1FF3F28F0200690
:1059C00000F00A83472E04D1BAF1000F08BF4FF050
:1059D000010ADDE9101247F48070002A0690C0F237
:1059E000358200230E93DDE91034CDE91A34B8F185
:1059F000650F00F0008300F33082B8F1450F00F02E
:105A0000FA8223AB049320AB03931FAB02930223D0
:105A100000930C98CDF804A0DDE91A2300F078FD7E
:105A2000F907054640F1B18000EB0A04DDE91A01EF
:105A300000220023FBF72CF8002840F03082239B43
:105A4000A34206D230215A1C23921970239B9C42F8
:105A5000F9D81F9A0F925B1B472E129300F09A8081
:105A6000B8F1660F40F09C800F9A07F00103002AFE
:105A700043EA0A0340F36C82002B40F024830F9B1F
:105A800007930A934FF066081FE2FC0678D4780665
:105A900076D50D9B099A1B681A8079E4214B1593E2
:105AA00017F0200200F0A8800D9B073323F00703B6
:105AB00019465A6851F8083B0D91F90740F1998051
:105AC00053EA020100F0958030218DF878108DF8AE
:105AD000798047F002070221FFF757BA124B15935E
:105AE000DEE7069AD0077FF59BAE8BE60C98402147
:105AF000FEF77AFA0B9B18601861002800F0C1824B
